{"abi":[{"type":"constructor","inputs":[{"name":"factory","type":"address","internalType":"address"},{"name":"wnc","type":"address","internalType":"address"}],"stateMutability":"nonpayable"},{"type":"receive","stateMutability":"payable"},{"type":"function","name":"FACTORY","inputs":[],"outputs":[{"name":"","type":"address","internalType":"address"}],"stateMutability":"view"},{"type":"function","name":"WNC","inputs":[],"outputs":[{"name":"","type":"address","internalType":"address"}],"stateMutability":"view"},{"type":"function","name":"addLiquidity","inputs":[{"name":"tokenA","type":"address","internalType":"address"},{"name":"tokenB","type":"address","internalType":"address"},{"name":"amountADesired","type":"uint256","internalType":"uint256"},{"name":"amountBDesired","type":"uint256","internalType":"uint256"},{"name":"amountAMin","type":"uint256","internalType":"uint256"},{"name":"amountBMin","type":"uint256","internalType":"uint256"},{"name":"to","type":"address","internalType":"address"},{"name":"deadline","type":"uint256","internalType":"uint256"}],"outputs":[{"name":"amountA","type":"uint256","internalType":"uint256"},{"name":"amountB","type":"uint256","internalType":"uint256"},{"name":"liquidity","type":"uint256","internalType":"uint256"}],"stateMutability":"nonpayable"},{"type":"function","name":"addLiquidityETH","inputs":[{"name":"token","type":"address","internalType":"address"},{"name":"amountTokenDesired","type":"uint256","internalType":"uint256"},{"name":"amountTokenMin","type":"uint256","internalType":"uint256"},{"name":"amountETHMin","type":"uint256","internalType":"uint256"},{"name":"to","type":"address","internalType":"address"},{"name":"deadline","type":"uint256","internalType":"uint256"}],"outputs":[{"name":"amountToken","type":"uint256","internalType":"uint256"},{"name":"amountETH","type":"uint256","internalType":"uint256"},{"name":"liquidity","type":"uint256","internalType":"uint256"}],"stateMutability":"payable"},{"type":"function","name":"getAmountIn","inputs":[{"name":"amountOut","type":"uint256","internalType":"uint256"},{"name":"reserveIn","type":"uint256","internalType":"uint256"},{"name":"reserveOut","type":"uint256","internalType":"uint256"},{"name":"path","type":"address[]","internalType":"address[]"}],"outputs":[{"name":"amountIn","type":"uint256","internalType":"uint256"}],"stateMutability":"view"},{"type":"function","name":"getAmountOut","inputs":[{"name":"amountIn","type":"uint256","internalType":"uint256"},{"name":"reserveIn","type":"uint256","internalType":"uint256"},{"name":"reserveOut","type":"uint256","internalType":"uint256"},{"name":"path","type":"address[]","internalType":"address[]"}],"outputs":[{"name":"amountOut","type":"uint256","internalType":"uint256"}],"stateMutability":"view"},{"type":"function","name":"getAmountsIn","inputs":[{"name":"amountOut","type":"uint256","internalType":"uint256"},{"name":"path","type":"address[]","internalType":"address[]"}],"outputs":[{"name":"amounts","type":"uint256[]","internalType":"uint256[]"}],"stateMutability":"view"},{"type":"function","name":"getAmountsOut","inputs":[{"name":"amountIn","type":"uint256","internalType":"uint256"},{"name":"path","type":"address[]","internalType":"address[]"}],"outputs":[{"name":"amounts","type":"uint256[]","internalType":"uint256[]"}],"stateMutability":"view"},{"type":"function","name":"quote","inputs":[{"name":"amountA","type":"uint256","internalType":"uint256"},{"name":"reserveA","type":"uint256","internalType":"uint256"},{"name":"reserveB","type":"uint256","internalType":"uint256"}],"outputs":[{"name":"amountB","type":"uint256","internalType":"uint256"}],"stateMutability":"pure"},{"type":"function","name":"removeLiquidity","inputs":[{"name":"tokenA","type":"address","internalType":"address"},{"name":"tokenB","type":"address","internalType":"address"},{"name":"liquidity","type":"uint256","internalType":"uint256"},{"name":"amountAMin","type":"uint256","internalType":"uint256"},{"name":"amountBMin","type":"uint256","internalType":"uint256"},{"name":"to","type":"address","internalType":"address"},{"name":"deadline","type":"uint256","internalType":"uint256"}],"outputs":[{"name":"amountA","type":"uint256","internalType":"uint256"},{"name":"amountB","type":"uint256","internalType":"uint256"}],"stateMutability":"nonpayable"},{"type":"function","name":"removeLiquidityETH","inputs":[{"name":"token","type":"address","internalType":"address"},{"name":"liquidity","type":"uint256","internalType":"uint256"},{"name":"amountTokenMin","type":"uint256","internalType":"uint256"},{"name":"amountETHMin","type":"uint256","internalType":"uint256"},{"name":"to","type":"address","internalType":"address"},{"name":"deadline","type":"uint256","internalType":"uint256"}],"outputs":[{"name":"amountToken","type":"uint256","internalType":"uint256"},{"name":"amountETH","type":"uint256","internalType":"uint256"}],"stateMutability":"nonpayable"},{"type":"function","name":"removeLiquidityETHSupportingFeeOnTransferTokens","inputs":[{"name":"token","type":"address","internalType":"address"},{"name":"liquidity","type":"uint256","internalType":"uint256"},{"name":"amountTokenMin","type":"uint256","internalType":"uint256"},{"name":"amountETHMin","type":"uint256","internalType":"uint256"},{"name":"to","type":"address","internalType":"address"},{"name":"deadline","type":"uint256","internalType":"uint256"}],"outputs":[{"name":"amountETH","type":"uint256","internalType":"uint256"}],"stateMutability":"nonpayable"},{"type":"function","name":"removeLiquidityETHWithPermit","inputs":[{"name":"token","type":"address","internalType":"address"},{"name":"liquidity","type":"uint256","internalType":"uint256"},{"name":"amountTokenMin","type":"uint256","internalType":"uint256"},{"name":"amountETHMin","type":"uint256","internalType":"uint256"},{"name":"to","type":"address","internalType":"address"},{"name":"deadline","type":"uint256","internalType":"uint256"},{"name":"approveMax","type":"bool","internalType":"bool"},{"name":"v","type":"uint8","internalType":"uint8"},{"name":"r","type":"bytes32","internalType":"bytes32"},{"name":"s","type":"bytes32","internalType":"bytes32"}],"outputs":[{"name":"amountToken","type":"uint256","internalType":"uint256"},{"name":"amountETH","type":"uint256","internalType":"uint256"}],"stateMutability":"nonpayable"},{"type":"function","name":"removeLiquidityETHWithPermitSupportingFeeOnTransferTokens","inputs":[{"name":"token","type":"address","internalType":"address"},{"name":"liquidity","type":"uint256","internalType":"uint256"},{"name":"amountTokenMin","type":"uint256","internalType":"uint256"},{"name":"amountETHMin","type":"uint256","internalType":"uint256"},{"name":"to","type":"address","internalType":"address"},{"name":"deadline","type":"uint256","internalType":"uint256"},{"name":"approveMax","type":"bool","internalType":"bool"},{"name":"v","type":"uint8","internalType":"uint8"},{"name":"r","type":"bytes32","internalType":"bytes32"},{"name":"s","type":"bytes32","internalType":"bytes32"}],"outputs":[{"name":"amountETH","type":"uint256","internalType":"uint256"}],"stateMutability":"nonpayable"},{"type":"function","name":"removeLiquidityWithPermit","inputs":[{"name":"tokenA","type":"address","internalType":"address"},{"name":"tokenB","type":"address","internalType":"address"},{"name":"liquidity","type":"uint256","internalType":"uint256"},{"name":"amountAMin","type":"uint256","internalType":"uint256"},{"name":"amountBMin","type":"uint256","internalType":"uint256"},{"name":"to","type":"address","internalType":"address"},{"name":"deadline","type":"uint256","internalType":"uint256"},{"name":"approveMax","type":"bool","internalType":"bool"},{"name":"v","type":"uint8","internalType":"uint8"},{"name":"r","type":"bytes32","internalType":"bytes32"},{"name":"s","type":"bytes32","internalType":"bytes32"}],"outputs":[{"name":"amountA","type":"uint256","internalType":"uint256"},{"name":"amountB","type":"uint256","internalType":"uint256"}],"stateMutability":"nonpayable"},{"type":"function","name":"swapETHForExactTokens","inputs":[{"name":"amountOut","type":"uint256","internalType":"uint256"},{"name":"path","type":"address[]","internalType":"address[]"},{"name":"to","type":"address","internalType":"address"},{"name":"deadline","type":"uint256","internalType":"uint256"}],"outputs":[{"name":"amounts","type":"uint256[]","internalType":"uint256[]"}],"stateMutability":"payable"},{"type":"function","name":"swapExactETHForTokens","inputs":[{"name":"amountOutMin","type":"uint256","internalType":"uint256"},{"name":"path","type":"address[]","internalType":"address[]"},{"name":"to","type":"address","internalType":"address"},{"name":"deadline","type":"uint256","internalType":"uint256"}],"outputs":[{"name":"amounts","type":"uint256[]","internalType":"uint256[]"}],"stateMutability":"payable"},{"type":"function","name":"swapExactETHForTokensSupportingFeeOnTransferTokens","inputs":[{"name":"amountOutMin","type":"uint256","internalType":"uint256"},{"name":"path","type":"address[]","internalType":"address[]"},{"name":"to","type":"address","internalType":"address"},{"name":"deadline","type":"uint256","internalType":"uint256"}],"outputs":[],"stateMutability":"payable"},{"type":"function","name":"swapExactTokensForETH","inputs":[{"name":"amountIn","type":"uint256","internalType":"uint256"},{"name":"amountOutMin","type":"uint256","internalType":"uint256"},{"name":"path","type":"address[]","internalType":"address[]"},{"name":"to","type":"address","internalType":"address"},{"name":"deadline","type":"uint256","internalType":"uint256"}],"outputs":[{"name":"amounts","type":"uint256[]","internalType":"uint256[]"}],"stateMutability":"nonpayable"},{"type":"function","name":"swapExactTokensForETHSupportingFeeOnTransferTokens","inputs":[{"name":"amountIn","type":"uint256","internalType":"uint256"},{"name":"amountOutMin","type":"uint256","internalType":"uint256"},{"name":"path","type":"address[]","internalType":"address[]"},{"name":"to","type":"address","internalType":"address"},{"name":"deadline","type":"uint256","internalType":"uint256"}],"outputs":[],"stateMutability":"nonpayable"},{"type":"function","name":"swapExactTokensForTokens","inputs":[{"name":"amountIn","type":"uint256","internalType":"uint256"},{"name":"amountOutMin","type":"uint256","internalType":"uint256"},{"name":"path","type":"address[]","internalType":"address[]"},{"name":"to","type":"address","internalType":"address"},{"name":"deadline","type":"uint256","internalType":"uint256"}],"outputs":[{"name":"amounts","type":"uint256[]","internalType":"uint256[]"}],"stateMutability":"nonpayable"},{"type":"function","name":"swapExactTokensForTokensSupportingFeeOnTransferTokens","inputs":[{"name":"amountIn","type":"uint256","internalType":"uint256"},{"name":"amountOutMin","type":"uint256","internalType":"uint256"},{"name":"path","type":"address[]","internalType":"address[]"},{"name":"to","type":"address","internalType":"address"},{"name":"deadline","type":"uint256","internalType":"uint256"}],"outputs":[],"stateMutability":"nonpayable"},{"type":"function","name":"swapTokensForExactETH","inputs":[{"name":"amountOut","type":"uint256","internalType":"uint256"},{"name":"amountInMax","type":"uint256","internalType":"uint256"},{"name":"path","type":"address[]","internalType":"address[]"},{"name":"to","type":"address","internalType":"address"},{"name":"deadline","type":"uint256","internalType":"uint256"}],"outputs":[{"name":"amounts","type":"uint256[]","internalType":"uint256[]"}],"stateMutability":"nonpayable"},{"type":"function","name":"swapTokensForExactTokens","inputs":[{"name":"amountOut","type":"uint256","internalType":"uint256"},{"name":"amountInMax","type":"uint256","internalType":"uint256"},{"name":"path","type":"address[]","internalType":"address[]"},{"name":"to","type":"address","internalType":"address"},{"name":"deadline","type":"uint256","internalType":"uint256"}],"outputs":[{"name":"amounts","type":"uint256[]","internalType":"uint256[]"}],"stateMutability":"nonpayable"}],"bytecode":{"object":"0x60c06040523480156200001157600080fd5b5060405162004792380380620047928339810160408190526200003491620000db565b6001600160a01b038216158015906200005557506001600160a01b03811615155b620000a65760405162461bcd60e51b815260206004820152601860248201527f44656674526f757465723a205a45524f5f414444524553530000000000000000604482015260640160405180910390fd5b6001600160a01b039182166080521660a05262000113565b80516001600160a01b0381168114620000d657600080fd5b919050565b60008060408385031215620000ef57600080fd5b620000fa83620000be565b91506200010a60208401620000be565b90509250929050565b60805160a051614510620002826000396000818161015f0152818161040c015281816105220152818161057a0152818161062b0152818161087001528181610bf201528181610d41015281816110570152818161113e015281816111e901528181611286015281816113af0152818161143d0152818161166a0152818161172c015281816117c701528181611844015281816118b801528181611d0d01528181611f0a01528181611f6901528181611fa60152818161203b0152818161217f01528181612292015261232001526000818161027a015281816106e1015281816107b401528181610970015281816109b101528181610afa01528181610ca801528181610d1e0152818161133b015281816115c601528181611aed01528181611ca401528181611cea01528181611e1d01528181611f460152818161222a01528181612b3901528181612b7f015281816130a3015281816137c00152818161386201526138e101526145106000f3fe60806040526004361061014f5760003560e01c80638803dbee116100b6578063d06ca61f1161006f578063d06ca61f1461042e578063de40f31d1461044e578063ded9382a1461046e578063e8e337001461048e578063f305d719146104c9578063fb3bdb41146104dc57600080fd5b80638803dbee14610367578063ad615dec14610387578063af2979eb146103a7578063b6f9de95146103c7578063baa2abde146103da578063c30336df146103fa57600080fd5b806338ed17391161010857806338ed1739146102b45780634a25d94a146102d45780635b0d5984146102f45780635c11d79514610314578063791ac947146103345780637ff36ab51461035457600080fd5b806302751cec1461019357806318cbafe5146101cd5780631f00ca74146101fa5780632195995c1461021a578063221599651461023a5780632dd310001461026857600080fd5b3661018e57336001600160a01b037f0000000000000000000000000000000000000000000000000000000000000000161461018c5761018c613a89565b005b600080fd5b34801561019f57600080fd5b506101b36101ae366004613ac7565b6104ef565b604080519283526020830191909152015b60405180910390f35b3480156101d957600080fd5b506101ed6101e8366004613b6a565b6105fe565b6040516101c49190613bdd565b34801561020657600080fd5b506101ed610215366004613cd9565b610961565b34801561022657600080fd5b506101b3610235366004613d3f565b6109a0565b34801561024657600080fd5b5061025a610255366004613de9565b610a81565b6040519081526020016101c4565b34801561027457600080fd5b5061029c7f000000000000000000000000000000000000000000000000000000000000000081565b6040516001600160a01b0390911681526020016101c4565b3480156102c057600080fd5b506101ed6102cf366004613b6a565b610a98565b3480156102e057600080fd5b506101ed6102ef366004613b6a565b610bc5565b34801561030057600080fd5b5061025a61030f366004613e43565b610d0e565b34801561032057600080fd5b5061018c61032f366004613b6a565b610e04565b34801561034057600080fd5b5061018c61034f366004613b6a565b61102c565b6101ed610362366004613ed9565b611261565b34801561037357600080fd5b506101ed610382366004613b6a565b611564565b34801561039357600080fd5b5061025a6103a2366004613f40565b61162c565b3480156103b357600080fd5b5061025a6103c2366004613ac7565b611641565b61018c6103d5366004613ed9565b6117a4565b3480156103e657600080fd5b506101b36103f5366004613f6c565b611aba565b34801561040657600080fd5b5061029c7f000000000000000000000000000000000000000000000000000000000000000081565b34801561043a57600080fd5b506101ed610449366004613cd9565b611c95565b34801561045a57600080fd5b5061025a610469366004613de9565b611ccb565b34801561047a57600080fd5b506101b3610489366004613e43565b611cd9565b34801561049a57600080fd5b506104ae6104a9366004613fde565b611dd4565b604080519384526020840192909252908201526060016101c4565b6104ae6104d7366004613ac7565b611edd565b6101ed6104ea366004613ed9565b612151565b600080824281101561051c5760405162461bcd60e51b81526004016105139061405a565b60405180910390fd5b61054b897f00000000000000000000000000000000000000000000000000000000000000008a8a8a308a611aba565b90935091506105646001600160a01b038a1686856124bb565b604051632e1a7d4d60e01b8152600481018390527f00000000000000000000000000000000000000000000000000000000000000006001600160a01b031690632e1a7d4d90602401600060405180830381600087803b1580156105c657600080fd5b505af11580156105da573d6000803e3d6000fd5b506105f2925050506001600160a01b038616836125ec565b50965096945050505050565b606081428110156106215760405162461bcd60e51b81526004016105139061405a565b6001600160a01b037f000000000000000000000000000000000000000000000000000000000000000016868661065860018261409d565b818110610667576106676140b0565b905060200201602081019061067c91906140c6565b6001600160a01b0316146106a25760405162461bcd60e51b8152600401610513906140ea565b61070b88878780806020026020016040519081016040528093929190818152602001838360200280828437600092019190915250506001600160a01b037f00000000000000000000000000000000000000000000000000000000000000001693929150506126cb565b915086826001845161071d919061409d565b8151811061072d5761072d6140b0565b602002602001015110156107535760405162461bcd60e51b815260040161051390614121565b61082f336107db8888600081811061076d5761076d6140b0565b905060200201602081019061078291906140c6565b89896001818110610795576107956140b0565b90506020020160208101906107aa91906140c6565b6001600160a01b037f000000000000000000000000000000000000000000000000000000000000000016919061284f565b846000815181106107ee576107ee6140b0565b602002602001015189896000818110610809576108096140b0565b905060200201602081019061081e91906140c6565b6001600160a01b03169291906128e1565b61086e82878780806020026020016040519081016040528093929190818152602001838360200280828437600092019190915250309250612a1f915050565b7f00000000000000000000000000000000000000000000000000000000000000006001600160a01b0316632e1a7d4d83600185516108ac919061409d565b815181106108bc576108bc6140b0565b60200260200101516040518263ffffffff1660e01b81526004016108e291815260200190565b600060405180830381600087803b1580156108fc57600080fd5b505af1158015610910573d6000803e3d6000fd5b505050506109568260018451610926919061409d565b81518110610936576109366140b0565b6020026020010151856001600160a01b03166125ec90919063ffffffff16565b509695505050505050565b60606109976001600160a01b037f0000000000000000000000000000000000000000000000000000000000000000168484612c55565b90505b92915050565b600080806109d86001600160a01b037f0000000000000000000000000000000000000000000000000000000000000000168f8f61284f565b90506000876109e7578c6109eb565b6000195b60405163d505accf60e01b81529091506001600160a01b0383169063d505accf90610a26903390309086908f908e908e908e90600401614167565b600060405180830381600087803b158015610a4057600080fd5b505af1158015610a54573d6000803e3d6000fd5b50505050610a678f8f8f8f8f8f8f611aba565b809450819550505050509b509b9950505050505050505050565b6000610a8f85858585612dcf565b95945050505050565b60608142811015610abb5760405162461bcd60e51b81526004016105139061405a565b610b2488878780806020026020016040519081016040528093929190818152602001838360200280828437600092019190915250506001600160a01b037f00000000000000000000000000000000000000000000000000000000000000001693929150506126cb565b9150868260018451610b36919061409d565b81518110610b4657610b466140b0565b60200260200101511015610b6c5760405162461bcd60e51b815260040161051390614121565b610b86336107db8888600081811061076d5761076d6140b0565b61095682878780806020026020016040519081016040528093929190818152602001838360200280828437600092019190915250899250612a1f915050565b60608142811015610be85760405162461bcd60e51b81526004016105139061405a565b6001600160a01b037f0000000000000000000000000000000000000000000000000000000000000000168686610c1f60018261409d565b818110610c2e57610c2e6140b0565b9050602002016020810190610c4391906140c6565b6001600160a01b031614610c695760405162461bcd60e51b8152600401610513906140ea565b610cd288878780806020026020016040519081016040528093929190818152602001838360200280828437600092019190915250506001600160a01b037f0000000000000000000000000000000000000000000000000000000000000000169392915050612c55565b91508682600081518110610ce857610ce86140b0565b602002602001015111156107535760405162461bcd60e51b8152600401610513906141a8565b600080610d656001600160a01b037f0000000000000000000000000000000000000000000000000000000000000000168d7f000000000000000000000000000000000000000000000000000000000000000061284f565b9050600086610d74578b610d78565b6000195b60405163d505accf60e01b81529091506001600160a01b0383169063d505accf90610db3903390309086908e908d908d908d90600401614167565b600060405180830381600087803b158015610dcd57600080fd5b505af1158015610de1573d6000803e3d6000fd5b50505050610df38d8d8d8d8d8d611641565b9d9c50505050505050505050505050565b8042811015610e255760405162461bcd60e51b81526004016105139061405a565b610e7b33610e6787876000818110610e3f57610e3f6140b0565b9050602002016020810190610e5491906140c6565b88886001818110610795576107956140b0565b8988886000818110610809576108096140b0565b60008585610e8a60018261409d565b818110610e9957610e996140b0565b9050602002016020810190610eae91906140c6565b6040516370a0823160e01b81526001600160a01b03868116600483015291909116906370a0823190602401602060405180830381865afa158015610ef6573d6000803e3d6000fd5b505050506040513d601f19601f82011682018060405250810190610f1a91906141ea565b9050610f5a868680806020026020016040519081016040528093929190818152602001838360200280828437600092019190915250889250613014915050565b86818787610f6960018261409d565b818110610f7857610f786140b0565b9050602002016020810190610f8d91906140c6565b6040516370a0823160e01b81526001600160a01b03888116600483015291909116906370a08231906024015b602060405180830381865afa158015610fd6573d6000803e3d6000fd5b505050506040513d601f19601f82011682018060405250810190610ffa91906141ea565b611004919061409d565b10156110225760405162461bcd60e51b815260040161051390614121565b5050505050505050565b804281101561104d5760405162461bcd60e51b81526004016105139061405a565b6001600160a01b037f000000000000000000000000000000000000000000000000000000000000000016858561108460018261409d565b818110611093576110936140b0565b90506020020160208101906110a891906140c6565b6001600160a01b0316146110ce5760405162461bcd60e51b8152600401610513906140ea565b6110e833610e6787876000818110610e3f57610e3f6140b0565b611126858580806020026020016040519081016040528093929190818152602001838360200280828437600092019190915250309250613014915050565b6040516370a0823160e01b81523060048201526000907f00000000000000000000000000000000000000000000000000000000000000006001600160a01b0316906370a0823190602401602060405180830381865afa15801561118d573d6000803e3d6000fd5b505050506040513d601f19601f820116820180604052508101906111b191906141ea565b9050868110156111d35760405162461bcd60e51b815260040161051390614121565b604051632e1a7d4d60e01b8152600481018290527f00000000000000000000000000000000000000000000000000000000000000006001600160a01b031690632e1a7d4d90602401600060405180830381600087803b15801561123557600080fd5b505af1158015611249573d6000803e3d6000fd5b50611022925050506001600160a01b038516826125ec565b606081428110156112845760405162461bcd60e51b81526004016105139061405a565b7f00000000000000000000000000000000000000000000000000000000000000006001600160a01b0316868660008181106112c1576112c16140b0565b90506020020160208101906112d691906140c6565b6001600160a01b0316146112fc5760405162461bcd60e51b8152600401610513906140ea565b61136534878780806020026020016040519081016040528093929190818152602001838360200280828437600092019190915250506001600160a01b037f00000000000000000000000000000000000000000000000000000000000000001693929150506126cb565b9150868260018451611377919061409d565b81518110611387576113876140b0565b602002602001015110156113ad5760405162461bcd60e51b815260040161051390614121565b7f00000000000000000000000000000000000000000000000000000000000000006001600160a01b031663d0e30db0836000815181106113ef576113ef6140b0565b60200260200101516040518263ffffffff1660e01b81526004016000604051808303818588803b15801561142257600080fd5b505af1158015611436573d6000803e3d6000fd5b50505050507f00000000000000000000000000000000000000000000000000000000000000006001600160a01b031663a9059cbb6114808888600081811061076d5761076d6140b0565b84600081518110611493576114936140b0565b60200260200101516040518363ffffffff1660e01b81526004016114cc9291906001600160a01b03929092168252602082015260400190565b6020604051808303816000875af11580156114eb573d6000803e3d6000fd5b505050506040513d601f19601f8201168201806040525081019061150f9190614203565b61151b5761151b613a89565b61155a82878780806020026020016040519081016040528093929190818152602001838360200280828437600092019190915250899250612a1f915050565b5095945050505050565b606081428110156115875760405162461bcd60e51b81526004016105139061405a565b6115f088878780806020026020016040519081016040528093929190818152602001838360200280828437600092019190915250506001600160a01b037f0000000000000000000000000000000000000000000000000000000000000000169392915050612c55565b91508682600081518110611606576116066140b0565b60200260200101511115610b6c5760405162461bcd60e51b8152600401610513906141a8565b60006116398484846132f4565b949350505050565b600081428110156116645760405162461bcd60e51b81526004016105139061405a565b611693887f00000000000000000000000000000000000000000000000000000000000000008989893089611aba565b6040516370a0823160e01b8152306004820152909350611716915085906001600160a01b038b16906370a0823190602401602060405180830381865afa1580156116e1573d6000803e3d6000fd5b505050506040513d601f19601f8201168201806040525081019061170591906141ea565b6001600160a01b038b1691906124bb565b604051632e1a7d4d60e01b8152600481018390527f00000000000000000000000000000000000000000000000000000000000000006001600160a01b031690632e1a7d4d90602401600060405180830381600087803b15801561177857600080fd5b505af115801561178c573d6000803e3d6000fd5b50610956925050506001600160a01b038516836125ec565b80428110156117c55760405162461bcd60e51b81526004016105139061405a565b7f00000000000000000000000000000000000000000000000000000000000000006001600160a01b031685856000818110611802576118026140b0565b905060200201602081019061181791906140c6565b6001600160a01b03161461183d5760405162461bcd60e51b8152600401610513906140ea565b60003490507f00000000000000000000000000000000000000000000000000000000000000006001600160a01b031663d0e30db0826040518263ffffffff1660e01b81526004016000604051808303818588803b15801561189d57600080fd5b505af11580156118b1573d6000803e3d6000fd5b50505050507f00000000000000000000000000000000000000000000000000000000000000006001600160a01b031663a9059cbb6118fb8888600081811061076d5761076d6140b0565b6040516001600160e01b031960e084901b1681526001600160a01b039091166004820152602481018490526044016020604051808303816000875af1158015611948573d6000803e3d6000fd5b505050506040513d601f19601f8201168201806040525081019061196c9190614203565b61197857611978613a89565b6000868661198760018261409d565b818110611996576119966140b0565b90506020020160208101906119ab91906140c6565b6040516370a0823160e01b81526001600160a01b03878116600483015291909116906370a0823190602401602060405180830381865afa1580156119f3573d6000803e3d6000fd5b505050506040513d601f19601f82011682018060405250810190611a1791906141ea565b9050611a57878780806020026020016040519081016040528093929190818152602001838360200280828437600092019190915250899250613014915050565b87818888611a6660018261409d565b818110611a7557611a756140b0565b9050602002016020810190611a8a91906140c6565b6040516370a0823160e01b81526001600160a01b03898116600483015291909116906370a0823190602401610fb9565b6000808242811015611ade5760405162461bcd60e51b81526004016105139061405a565b6000611b146001600160a01b037f0000000000000000000000000000000000000000000000000000000000000000168c8c61284f565b6040516323b872dd60e01b81523360048201526001600160a01b03821660248201819052604482018c90529192506323b872dd906064016020604051808303816000875af1158015611b6a573d6000803e3d6000fd5b505050506040513d601f19601f82011682018060405250810190611b8e9190614203565b5060405163226bf2d160e21b81526001600160a01b03878116600483015260009182918416906389afcb449060240160408051808303816000875af1158015611bdb573d6000803e3d6000fd5b505050506040513d601f19601f82011682018060405250810190611bff9190614220565b90925090506000611c196001600160a01b038f168e613386565b509050806001600160a01b03168e6001600160a01b031614611c3c578183611c3f565b82825b90975095508a871015611c645760405162461bcd60e51b815260040161051390614244565b89861015611c845760405162461bcd60e51b815260040161051390614285565b505050505097509795505050505050565b60606109976001600160a01b037f00000000000000000000000000000000000000000000000000000000000000001684846126cb565b6000610a8f85858585613467565b60008080611d316001600160a01b037f0000000000000000000000000000000000000000000000000000000000000000168e7f000000000000000000000000000000000000000000000000000000000000000061284f565b9050600087611d40578c611d44565b6000195b60405163d505accf60e01b81529091506001600160a01b0383169063d505accf90611d7f903390309086908f908e908e908e90600401614167565b600060405180830381600087803b158015611d9957600080fd5b505af1158015611dad573d6000803e3d6000fd5b50505050611dbf8e8e8e8e8e8e6104ef565b909f909e509c50505050505050505050505050565b60008060008342811015611dfa5760405162461bcd60e51b81526004016105139061405a565b33611e098d8d8d8d8d8d613792565b90955093506000611e446001600160a01b037f0000000000000000000000000000000000000000000000000000000000000000168f8f61284f565b9050611e528e8383896128e1565b611e5e8d8383886128e1565b6040516335313c2160e11b81526001600160a01b038981166004830152821690636a627842906024016020604051808303816000875af1158015611ea6573d6000803e3d6000fd5b505050506040513d601f19601f82011682018060405250810190611eca91906141ea565b9350505050985098509895505050505050565b60008060008342811015611f035760405162461bcd60e51b81526004016105139061405a565b34611f328b7f00000000000000000000000000000000000000000000000000000000000000008c848d8d613792565b90955093506000611f8d6001600160a01b037f0000000000000000000000000000000000000000000000000000000000000000168d7f000000000000000000000000000000000000000000000000000000000000000061284f565b9050611fa46001600160a01b038d163383896128e1565b7f00000000000000000000000000000000000000000000000000000000000000006001600160a01b031663d0e30db0866040518263ffffffff1660e01b81526004016000604051808303818588803b158015611fff57600080fd5b505af1158015612013573d6000803e3d6000fd5b505060405163a9059cbb60e01b81526001600160a01b038581166004830152602482018a90527f000000000000000000000000000000000000000000000000000000000000000016935063a9059cbb925060440190506020604051808303816000875af1158015612088573d6000803e3d6000fd5b505050506040513d601f19601f820116820180604052508101906120ac9190614203565b6120b8576120b8613a89565b6040516335313c2160e11b81526001600160a01b038981166004830152821690636a627842906024016020604051808303816000875af1158015612100573d6000803e3d6000fd5b505050506040513d601f19601f8201168201806040525081019061212491906141ea565b9350848211156121425761214261213b868461409d565b33906125ec565b50505096509650969350505050565b606081428110156121745760405162461bcd60e51b81526004016105139061405a565b346001600160a01b037f00000000000000000000000000000000000000000000000000000000000000001687876000816121b0576121b06140b0565b90506020020160208101906121c591906140c6565b6001600160a01b0316146121eb5760405162461bcd60e51b8152600401610513906140ea565b61225488888880806020026020016040519081016040528093929190818152602001838360200280828437600092019190915250506001600160a01b037f0000000000000000000000000000000000000000000000000000000000000000169392915050612c55565b9250808360008151811061226a5761226a6140b0565b602002602001015111156122905760405162461bcd60e51b8152600401610513906141a8565b7f00000000000000000000000000000000000000000000000000000000000000006001600160a01b031663d0e30db0846000815181106122d2576122d26140b0565b60200260200101516040518263ffffffff1660e01b81526004016000604051808303818588803b15801561230557600080fd5b505af1158015612319573d6000803e3d6000fd5b50505050507f00000000000000000000000000000000000000000000000000000000000000006001600160a01b031663a9059cbb61238b89896000818110612363576123636140b0565b905060200201602081019061237891906140c6565b8a8a6001818110610795576107956140b0565b8560008151811061239e5761239e6140b0565b60200260200101516040518363ffffffff1660e01b81526004016123d79291906001600160a01b03929092168252602082015260400190565b6020604051808303816000875af11580156123f6573d6000803e3d6000fd5b505050506040513d601f19601f8201168201806040525081019061241a9190614203565b61242657612426613a89565b612465838888808060200260200160405190810160405280939291908181526020018383602002808284376000920191909152508a9250612a1f915050565b82600081518110612478576124786140b0565b60200260200101518111156124b0576124b08360008151811061249d5761249d6140b0565b60200260200101518261213b919061409d565b505095945050505050565b604080516001600160a01b038481166024830152604480830185905283518084039091018152606490920183526020820180516001600160e01b031663a9059cbb60e01b179052915160009283929087169161251791906142ea565b6000604051808303816000865af19150503d8060008114612554576040519150601f19603f3d011682016040523d82523d6000602084013e612559565b606091505b50915091508180156125835750805115806125835750808060200190518101906125839190614203565b6125e55760405162461bcd60e51b815260206004820152602d60248201527f5472616e7366657248656c7065723a3a736166655472616e736665723a20747260448201526c185b9cd9995c8819985a5b1959609a1b6064820152608401610513565b5050505050565b604080516000808252602082019092526001600160a01b03841690839060405161261691906142ea565b60006040518083038185875af1925050503d8060008114612653576040519150601f19603f3d011682016040523d82523d6000602084013e612658565b606091505b50509050806126c65760405162461bcd60e51b815260206004820152603460248201527f5472616e7366657248656c7065723a3a736166655472616e736665724554483a60448201527308115512081d1c985b9cd9995c8819985a5b195960621b6064820152608401610513565b505050565b60606002825110156127175760405162461bcd60e51b8152602060048201526015602482015274088cacce898d2c47440929cac82989288bea082a89605b1b6044820152606401610513565b815167ffffffffffffffff81111561273157612731613c21565b60405190808252806020026020018201604052801561275a578160200160208202803683370190505b5090508281600081518110612771576127716140b0565b60200260200101818152505060005b6001835161278e919061409d565b811015612847576000806127e1878685815181106127ae576127ae6140b0565b6020026020010151878660016127c49190614306565b815181106127d4576127d46140b0565b60200260200101516139bf565b9150915061280a8484815181106127fa576127fa6140b0565b6020026020010151838388613467565b84612816856001614306565b81518110612826576128266140b0565b6020026020010181815250505050808061283f90614319565b915050612780565b509392505050565b600080600061285e8585613386565b60405163e6a4390560e01b81526001600160a01b03808416600483015280831660248301529294509092509087169063e6a4390590604401602060405180830381865afa1580156128b3573d6000803e3d6000fd5b505050506040513d601f19601f820116820180604052508101906128d79190614332565b9695505050505050565b604080516001600160a01b0385811660248301528481166044830152606480830185905283518084039091018152608490920183526020820180516001600160e01b03166323b872dd60e01b179052915160009283929088169161294591906142ea565b6000604051808303816000865af19150503d8060008114612982576040519150601f19603f3d011682016040523d82523d6000602084013e612987565b606091505b50915091508180156129b15750805115806129b15750808060200190518101906129b19190614203565b612a175760405162461bcd60e51b815260206004820152603160248201527f5472616e7366657248656c7065723a3a7472616e7366657246726f6d3a207472604482015270185b9cd9995c919c9bdb4819985a5b1959607a1b6064820152608401610513565b505050505050565b60005b60018351612a30919061409d565b811015612c4f57600080848381518110612a4c57612a4c6140b0565b602002602001015185846001612a629190614306565b81518110612a7257612a726140b0565b6020026020010151915091506000612a9c82846001600160a01b031661338690919063ffffffff16565b509050600087612aad866001614306565b81518110612abd57612abd6140b0565b60200260200101519050600080836001600160a01b0316866001600160a01b031614612aeb57826000612aef565b6000835b91509150600060028a51612b03919061409d565b8810612b0f5788612b70565b612b70868b612b1f8b6002614306565b81518110612b2f57612b2f6140b0565b60200260200101517f00000000000000000000000000000000000000000000000000000000000000006001600160a01b031661284f9092919063ffffffff16565b9050612ba66001600160a01b037f000000000000000000000000000000000000000000000000000000000000000016888861284f565b6001600160a01b031663022c0d9f84848460006040519080825280601f01601f191660200182016040528015612be3576020820181803683370190505b506040518563ffffffff1660e01b8152600401612c03949392919061434f565b600060405180830381600087803b158015612c1d57600080fd5b505af1158015612c31573d6000803e3d6000fd5b50505050505050505050508080612c4790614319565b915050612a22565b50505050565b6060600282511015612ca15760405162461bcd60e51b8152602060048201526015602482015274088cacce898d2c47440929cac82989288bea082a89605b1b6044820152606401610513565b815167ffffffffffffffff811115612cbb57612cbb613c21565b604051908082528060200260200182016040528015612ce4578160200160208202803683370190505b509050828160018351612cf7919061409d565b81518110612d0757612d076140b0565b602002602001018181525050600060018351612d23919061409d565b90505b801561284757600080612d698786612d3f60018761409d565b81518110612d4f57612d4f6140b0565b60200260200101518786815181106127d4576127d46140b0565b91509150612d92848481518110612d8257612d826140b0565b6020026020010151838388612dcf565b84612d9e60018661409d565b81518110612dae57612dae6140b0565b60200260200101818152505050508080612dc79061439f565b915050612d26565b6000808511612e2c5760405162461bcd60e51b815260206004820152602360248201527f446566744c69623a20494e53554646494349454e545f4f55545055545f414d4f60448201526215539560ea1b6064820152608401610513565b600084118015612e3c5750600083115b612e585760405162461bcd60e51b8152600401610513906143b6565b60008083600081518110612e6e57612e6e6140b0565b602002602001015184600181518110612e8957612e896140b0565b602002602001015191509150600080612ea28484613386565b91509150600080836001600160a01b0316866001600160a01b031614612eca578a6000612ece565b60008b5b91509150600080856001600160a01b0316886001600160a01b031614612ef5578a8c612ef8565b8b8b5b9150915060006040518060c00160405280886001600160a01b03168152602001876001600160a01b0316815260200186815260200185815260200184815260200183815250905073__$38d3694db2b4e2b2be4a81eed38b7a3545$__6367b1a187826040518263ffffffff1660e01b8152600401612f7691906143ed565b602060405180830381865af4158015612f93573d6000803e3d6000fd5b505050506040513d601f19601f82011682018060405250810190612fb791906141ea565b612fc3906103e861409d565b612fcd8f8e61409d565b612fd7919061443a565b612fe18f8f61443a565b612fed906103e861443a565b612ff79190614451565b613002906001614306565b9e9d5050505050505050505050505050565b60005b60018351613025919061409d565b8110156126c657600080848381518110613041576130416140b0565b6020026020010151858460016130579190614306565b81518110613067576130676140b0565b602002602001015191509150600061309182846001600160a01b031661338690919063ffffffff16565b50905060006130ca6001600160a01b037f000000000000000000000000000000000000000000000000000000000000000016858561284f565b9050600080600080846001600160a01b0316630902f1ac6040518163ffffffff1660e01b8152600401606060405180830381865afa158015613110573d6000803e3d6000fd5b505050506040513d601f19601f82011682018060405250810190613134919061448a565b506001600160701b031691506001600160701b03169150600080876001600160a01b03168a6001600160a01b03161461316e578284613171565b83835b6040516370a0823160e01b81526001600160a01b038a8116600483015292945090925083918c16906370a0823190602401602060405180830381865afa1580156131bf573d6000803e3d6000fd5b505050506040513d601f19601f820116820180604052508101906131e391906141ea565b6131ed919061409d565b955061320682828f89613467909392919063ffffffff16565b945050505050600080856001600160a01b0316886001600160a01b03161461323057826000613234565b6000835b91509150600060028c51613248919061409d565b8a10613254578a613264565b613264888d612b1f8d6002614306565b6040805160008152602081019182905263022c0d9f60e01b9091529091506001600160a01b0387169063022c0d9f906132a6908690869086906024810161434f565b600060405180830381600087803b1580156132c057600080fd5b505af11580156132d4573d6000803e3d6000fd5b5050505050505050505050505080806132ec90614319565b915050613017565b60008084116133455760405162461bcd60e51b815260206004820152601c60248201527f446566744c69623a20494e53554646494349454e545f414d4f554e54000000006044820152606401610513565b6000831180156133555750600082115b6133715760405162461bcd60e51b8152600401610513906143b6565b8261337c838661443a565b6116399190614451565b600080826001600160a01b0316846001600160a01b0316036133ea5760405162461bcd60e51b815260206004820152601c60248201527f446566744c69623a204944454e544943414c5f414444524553534553000000006044820152606401610513565b826001600160a01b0316846001600160a01b03161061340a57828461340d565b83835b90925090506001600160a01b0382166134605760405162461bcd60e51b8152602060048201526015602482015274446566744c69623a205a45524f5f4144445245535360581b6044820152606401610513565b9250929050565b60008085116134c35760405162461bcd60e51b815260206004820152602260248201527f446566744c69623a20494e53554646494349454e545f494e5055545f414d4f55604482015261139560f21b6064820152608401610513565b6000841180156134d35750600083115b6134ef5760405162461bcd60e51b8152600401610513906143b6565b60008061353084600081518110613508576135086140b0565b602002602001015185600181518110613523576135236140b0565b6020026020010151613386565b91509150600080836001600160a01b031686600081518110613554576135546140b0565b60200260200101516001600160a01b03161461358f576135748989614306565b61357e888b61443a565b6135889190614451565b60006135af565b600061359b8a8a614306565b6135a5898c61443a565b6135af9190614451565b91509150600080856001600160a01b0316886000815181106135d3576135d36140b0565b60200260200101516001600160a01b0316146135f057888a6135f3565b89895b9150915060006040518060c00160405280886001600160a01b03168152602001876001600160a01b0316815260200186815260200185815260200184815260200183815250905073__$38d3694db2b4e2b2be4a81eed38b7a3545$__6367b1a187826040518263ffffffff1660e01b815260040161367191906143ed565b602060405180830381865af415801561368e573d6000803e3d6000fd5b505050506040513d601f19601f820116820180604052508101906136b291906141ea565b6136be906103e861409d565b6136c8908d61443a565b6136d48c6103e861443a565b6136de9190614306565b6040516367b1a18760e01b81528b9073__$38d3694db2b4e2b2be4a81eed38b7a3545$__906367b1a187906137179086906004016143ed565b602060405180830381865af4158015613734573d6000803e3d6000fd5b505050506040513d601f19601f8201168201806040525081019061375891906141ea565b613764906103e861409d565b61376e908f61443a565b613778919061443a565b6137829190614451565b9c9b505050505050505050505050565b60405163e6a4390560e01b81526001600160a01b0387811660048301528681166024830152600091829182917f00000000000000000000000000000000000000000000000000000000000000009091169063e6a4390590604401602060405180830381865afa158015613809573d6000803e3d6000fd5b505050506040513d601f19601f8201168201806040525081019061382d9190614332565b6001600160a01b0316036138d1576040516364e329cb60e11b81526001600160a01b03898116600483015288811660248301527f0000000000000000000000000000000000000000000000000000000000000000169063c9c65396906044016020604051808303816000875af11580156138ab573d6000803e3d6000fd5b505050506040513d601f19601f820116820180604052508101906138cf9190614332565b505b6000806139086001600160a01b037f0000000000000000000000000000000000000000000000000000000000000000168b8b6139bf565b9150915081600014801561391a575080155b1561392a578793508692506139b2565b60006139378984846132f4565b905087811161396b57858110156139605760405162461bcd60e51b815260040161051390614285565b8894509250826139b0565b60006139788984866132f4565b90508981111561398a5761398a613a89565b878110156139aa5760405162461bcd60e51b815260040161051390614244565b94508793505b505b5050965096945050505050565b60008060006139ce8585613386565b5090506000806139df88888861284f565b6001600160a01b0316630902f1ac6040518163ffffffff1660e01b8152600401606060405180830381865afa158015613a1c573d6000803e3d6000fd5b505050506040513d601f19601f82011682018060405250810190613a40919061448a565b506001600160701b031691506001600160701b03169150826001600160a01b0316876001600160a01b031614613a77578082613a7a565b81815b90999098509650505050505050565b634e487b7160e01b600052600160045260246000fd5b6001600160a01b0381168114613ab457600080fd5b50565b8035613ac281613a9f565b919050565b60008060008060008060c08789031215613ae057600080fd5b8635613aeb81613a9f565b95506020870135945060408701359350606087013592506080870135613b1081613a9f565b8092505060a087013590509295509295509295565b60008083601f840112613b3757600080fd5b50813567ffffffffffffffff811115613b4f57600080fd5b6020830191508360208260051b850101111561346057600080fd5b60008060008060008060a08789031215613b8357600080fd5b8635955060208701359450604087013567ffffffffffffffff811115613ba857600080fd5b613bb489828a01613b25565b9095509350506060870135613bc881613a9f565b80925050608087013590509295509295509295565b6020808252825182820181905260009190848201906040850190845b81811015613c1557835183529284019291840191600101613bf9565b50909695505050505050565b634e487b7160e01b600052604160045260246000fd5b600082601f830112613c4857600080fd5b8135602067ffffffffffffffff80831115613c6557613c65613c21565b8260051b604051601f19603f83011681018181108482111715613c8a57613c8a613c21565b604052938452858101830193838101925087851115613ca857600080fd5b83870191505b84821015613cce57613cbf82613ab7565b83529183019190830190613cae565b979650505050505050565b60008060408385031215613cec57600080fd5b82359150602083013567ffffffffffffffff811115613d0a57600080fd5b613d1685828601613c37565b9150509250929050565b8015158114613ab457600080fd5b803560ff81168114613ac257600080fd5b60008060008060008060008060008060006101608c8e031215613d6157600080fd5b8b35613d6c81613a9f565b9a5060208c0135613d7c81613a9f565b995060408c0135985060608c0135975060808c0135965060a08c0135613da181613a9f565b955060c08c0135945060e08c0135613db881613d20565b9350613dc76101008d01613d2e565b92506101208c013591506101408c013590509295989b509295989b9093969950565b60008060008060808587031215613dff57600080fd5b843593506020850135925060408501359150606085013567ffffffffffffffff811115613e2b57600080fd5b613e3787828801613c37565b91505092959194509250565b6000806000806000806000806000806101408b8d031215613e6357600080fd5b8a35613e6e81613a9f565b995060208b0135985060408b0135975060608b0135965060808b0135613e9381613a9f565b955060a08b0135945060c08b0135613eaa81613d20565b9350613eb860e08c01613d2e565b92506101008b013591506101208b013590509295989b9194979a5092959850565b600080600080600060808688031215613ef157600080fd5b85359450602086013567ffffffffffffffff811115613f0f57600080fd5b613f1b88828901613b25565b9095509350506040860135613f2f81613a9f565b949793965091946060013592915050565b600080600060608486031215613f5557600080fd5b505081359360208301359350604090920135919050565b600080600080600080600060e0888a031215613f8757600080fd5b8735613f9281613a9f565b96506020880135613fa281613a9f565b955060408801359450606088013593506080880135925060a0880135613fc781613a9f565b8092505060c0880135905092959891949750929550565b600080600080600080600080610100898b031215613ffb57600080fd5b883561400681613a9f565b9750602089013561401681613a9f565b965060408901359550606089013594506080890135935060a0890135925060c089013561404281613a9f565b8092505060e089013590509295985092959890939650565b6020808252601390820152721119599d149bdd5d195c8e8811561412549151606a1b604082015260600190565b634e487b7160e01b600052601160045260246000fd5b8181038181111561099a5761099a614087565b634e487b7160e01b600052603260045260246000fd5b6000602082840312156140d857600080fd5b81356140e381613a9f565b9392505050565b60208082526018908201527f44656674526f757465723a20494e56414c49445f504154480000000000000000604082015260600190565b60208082526026908201527f44656674526f757465723a20494e53554646494349454e545f4f55545055545f604082015265105353d5539560d21b606082015260800190565b6001600160a01b0397881681529590961660208601526040850193909352606084019190915260ff16608083015260a082015260c081019190915260e00190565b60208082526022908201527f44656674526f757465723a204558434553534956455f494e5055545f414d4f55604082015261139560f21b606082015260800190565b6000602082840312156141fc57600080fd5b5051919050565b60006020828403121561421557600080fd5b81516140e381613d20565b6000806040838503121561423357600080fd5b505080516020909101519092909150565b60208082526021908201527f44656674526f757465723a20494e53554646494349454e545f415f414d4f554e6040820152601560fa1b606082015260800190565b60208082526021908201527f44656674526f757465723a20494e53554646494349454e545f425f414d4f554e6040820152601560fa1b606082015260800190565b60005b838110156142e15781810151838201526020016142c9565b50506000910152565b600082516142fc8184602087016142c6565b9190910192915050565b8082018082111561099a5761099a614087565b60006001820161432b5761432b614087565b5060010190565b60006020828403121561434457600080fd5b81516140e381613a9f565b84815283602082015260018060a01b038316604082015260806060820152600082518060808401526143888160a08501602087016142c6565b601f01601f19169190910160a00195945050505050565b6000816143ae576143ae614087565b506000190190565b6020808252601f908201527f446566744c69623a20494e53554646494349454e545f4c495155494449545900604082015260600190565b81516001600160a01b0390811682526020808401519091169082015260408083015190820152606080830151908201526080808301519082015260a0918201519181019190915260c00190565b808202811582820484141761099a5761099a614087565b60008261446e57634e487b7160e01b600052601260045260246000fd5b500490565b80516001600160701b0381168114613ac257600080fd5b60008060006060848603121561449f57600080fd5b6144a884614473565b92506144b660208501614473565b9150604084015163ffffffff811681146144cf57600080fd5b80915050925092509256fea264697066735822122044ed30448363b9c5dd08b811827f133e4ff3739fde450dae64a4648406a6dc3c64736f6c63430008140033","linkReferences":{"contracts/libraries/SwapLib.sol":{"SwapLib":[{"start":12739,"length":20},{"start":14526,"length":20},{"start":14705,"length":20}]}}},"methodIdentifiers":{"FACTORY()":"2dd31000","WNC()":"c30336df","addLiquidity(address,address,uint256,uint256,uint256,uint256,address,uint256)":"e8e33700","addLiquidityETH(address,uint256,uint256,uint256,address,uint256)":"f305d719","getAmountIn(uint256,uint256,uint256,address[])":"22159965","getAmountOut(uint256,uint256,uint256,address[])":"de40f31d","getAmountsIn(uint256,address[])":"1f00ca74","getAmountsOut(uint256,address[])":"d06ca61f","quote(uint256,uint256,uint256)":"ad615dec","removeLiquidity(address,address,uint256,uint256,uint256,address,uint256)":"baa2abde","removeLiquidityETH(address,uint256,uint256,uint256,address,uint256)":"02751cec","removeLiquidityETHSupportingFeeOnTransferTokens(address,uint256,uint256,uint256,address,uint256)":"af2979eb","removeLiquidityETHWithPermit(address,uint256,uint256,uint256,address,uint256,bool,uint8,bytes32,bytes32)":"ded9382a","removeLiquidityETHWithPermitSupportingFeeOnTransferTokens(address,uint256,uint256,uint256,address,uint256,bool,uint8,bytes32,bytes32)":"5b0d5984","removeLiquidityWithPermit(address,address,uint256,uint256,uint256,address,uint256,bool,uint8,bytes32,bytes32)":"2195995c","swapETHForExactTokens(uint256,address[],address,uint256)":"fb3bdb41","swapExactETHForTokens(uint256,address[],address,uint256)":"7ff36ab5","swapExactETHForTokensSupportingFeeOnTransferTokens(uint256,address[],address,uint256)":"b6f9de95","swapExactTokensForETH(uint256,uint256,address[],address,uint256)":"18cbafe5","swapExactTokensForETHSupportingFeeOnTransferTokens(uint256,uint256,address[],address,uint256)":"791ac947","swapExactTokensForTokens(uint256,uint256,address[],address,uint256)":"38ed1739","swapExactTokensForTokensSupportingFeeOnTransferTokens(uint256,uint256,address[],address,uint256)":"5c11d795","swapTokensForExactETH(uint256,uint256,address[],address,uint256)":"4a25d94a","swapTokensForExactTokens(uint256,uint256,address[],address,uint256)":"8803dbee"},"id":3}