{"abi":[{"type":"function","name":"A_LEFT","inputs":[],"outputs":[{"name":"","type":"int64","internalType":"int64"}],"stateMutability":"view"},{"type":"function","name":"A_LEFT_EXP","inputs":[],"outputs":[{"name":"","type":"int112","internalType":"int112"}],"stateMutability":"view"},{"type":"function","name":"A_RIGHT","inputs":[],"outputs":[{"name":"","type":"int64","internalType":"int64"}],"stateMutability":"view"},{"type":"function","name":"A_RIGHT_EXP","inputs":[],"outputs":[{"name":"","type":"int112","internalType":"int112"}],"stateMutability":"view"},{"type":"function","name":"B_LEFT","inputs":[],"outputs":[{"name":"","type":"int64","internalType":"int64"}],"stateMutability":"view"},{"type":"function","name":"B_LEFT_EXP","inputs":[],"outputs":[{"name":"","type":"int112","internalType":"int112"}],"stateMutability":"view"},{"type":"function","name":"B_RIGHT","inputs":[],"outputs":[{"name":"","type":"int64","internalType":"int64"}],"stateMutability":"view"},{"type":"function","name":"B_RIGHT_EXP","inputs":[],"outputs":[{"name":"","type":"int112","internalType":"int112"}],"stateMutability":"view"},{"type":"function","name":"LINEAR_REGRESSION_BASIS_POINT","inputs":[],"outputs":[{"name":"","type":"int64","internalType":"int64"}],"stateMutability":"view"},{"type":"function","name":"LOWER_STOP_LIMIT","inputs":[],"outputs":[{"name":"","type":"int32","internalType":"int32"}],"stateMutability":"view"},{"type":"function","name":"LOWER_THRESHOLD_LIMIT","inputs":[],"outputs":[{"name":"","type":"int32","internalType":"int32"}],"stateMutability":"view"},{"type":"function","name":"UPPER_STOP_LIMIT","inputs":[],"outputs":[{"name":"","type":"int32","internalType":"int32"}],"stateMutability":"view"},{"type":"function","name":"UPPER_THRESHOLD_LIMIT","inputs":[],"outputs":[{"name":"","type":"int32","internalType":"int32"}],"stateMutability":"view"},{"type":"function","name":"applyDeltaAlgorithm","inputs":[{"name":"_deltaParams","type":"tuple","internalType":"struct SwapLib.DeltaCalcParams","components":[{"name":"token0","type":"address","internalType":"address"},{"name":"token1","type":"address","internalType":"address"},{"name":"amount0Out","type":"uint256","internalType":"uint256"},{"name":"amount1Out","type":"uint256","internalType":"uint256"},{"name":"reserve0","type":"uint256","internalType":"uint256"},{"name":"reserve1","type":"uint256","internalType":"uint256"}]}],"outputs":[{"name":"correctedFee","type":"uint256","internalType":"uint256"}],"stateMutability":"view"},{"type":"error","name":"PRBMath_MulDiv18_Overflow","inputs":[{"name":"x","type":"uint256","internalType":"uint256"},{"name":"y","type":"uint256","internalType":"uint256"}]},{"type":"error","name":"PRBMath_MulDiv_Overflow","inputs":[{"name":"x","type":"uint256","internalType":"uint256"},{"name":"y","type":"uint256","internalType":"uint256"},{"name":"denominator","type":"uint256","internalType":"uint256"}]},{"type":"error","name":"PRBMath_SD59x18_Div_InputTooSmall","inputs":[]},{"type":"error","name":"PRBMath_SD59x18_Div_Overflow","inputs":[{"name":"x","type":"int256","internalType":"SD59x18"},{"name":"y","type":"int256","internalType":"SD59x18"}]},{"type":"error","name":"PRBMath_SD59x18_Exp2_InputTooBig","inputs":[{"name":"x","type":"int256","internalType":"SD59x18"}]},{"type":"error","name":"PRBMath_SD59x18_Log_InputTooSmall","inputs":[{"name":"x","type":"int256","internalType":"SD59x18"}]},{"type":"error","name":"PRBMath_SD59x18_Mul_InputTooSmall","inputs":[]},{"type":"error","name":"PRBMath_SD59x18_Mul_Overflow","inputs":[{"name":"x","type":"int256","internalType":"SD59x18"},{"name":"y","type":"int256","internalType":"SD59x18"}]},{"type":"error","name":"SafeCastOverflowedIntToUint","inputs":[{"name":"value","type":"int256","internalType":"int256"}]}],"bytecode":{"object":"0x61151a61003a600b82828239805160001a60731461002d57634e487b7160e01b600052600060045260246000fd5b30600052607381538281f3fe73000000000000000000000000000000000000000030146080604052600436106100f45760003560e01c806374070c2511610096578063a2f8278711610070578063a2f82787146101c0578063bd93aed4146101ca578063c4be8314146101d4578063d6cafa62146101dd57600080fd5b806374070c25146101a35780637506c980146101ac5780639955985e146101b657600080fd5b806325637f4a116100d257806325637f4a1461014c57806329084376146101555780635ae566521461016457806367b1a1871461018257600080fd5b806310cddaf2146100f95780631a2aed8d1461011a57806322607b5d1461013d575b600080fd5b61010260f91981565b60405160039190910b81526020015b60405180910390f35b61012a67196ea321c0aef4b71981565b604051600d9190910b8152602001610111565b61012a67032dd4643815de9c81565b61010261014e81565b61012a676f05b59d3b20000081565b61016f6201099f1981565b60405160079190910b8152602001610111565b6101956101903660046112d2565b6101ec565b604051908152602001610111565b61016f61631a81565b61016f6114f91981565b61016f620f424081565b61016f6136af1981565b6101026101f31981565b6101026103e881565b61012a67dcbb62492885880881565b60008061020661020136859003850185611300565b61021a565b90506102138160036103d6565b9392505050565b80516040516370a0823160e01b815230600482015260009182916001600160a01b03909116906370a0823190602401602060405180830381865afa158015610266573d6000803e3d6000fd5b505050506040513d601f19601f8201168201806040525081019061028a9190611394565b60208401516040516370a0823160e01b81523060048201529192506000916001600160a01b03909116906370a0823190602401602060405180830381865afa1580156102da573d6000803e3d6000fd5b505050506040513d601f19601f820116820180604052508101906102fe9190611394565b608085015160a086015191925090811580610317575080155b156103285750600095945050505050565b60008161033884620f42406113c3565b61034291906113f0565b90506000876040015160000361037e578288606001516103629190611404565b61036f87620f42406113c3565b61037991906113f0565b6103a6565b8484896040015161038f9190611404565b61039c90620f42406113c3565b6103a691906113f0565b90506103e8826103b683836113c3565b6103c091906113f0565b6103ca9190611417565b98975050505050505050565b600060f91983128015906103ec575061014e8313155b156103f85750806104bf565b6101f319831280159061040c575060f91983125b1561042a576104236201099f196136af19856104c5565b90506104bf565b61014e8313801561043d57506103e88313155b156104525761042361631a6114f919856104c5565b6101f3198312801561046757506103e7198312155b1561048857610423676f05b59d3b20000067196ea321c0aef4b71985610505565b6103e88313801561049b57506113888313155b156104bb5761042367dcbb62492885880867032dd4643815de9c85610505565b5060375b92915050565b6000620f42406104d7846103e861143e565b60070b838660070b6104e9919061145e565b6104f3919061148e565b6104fd91906114b6565b949350505050565b600061051f6ec097ce7bc90715b34b9f100000000061057d565b61055d61055861055561054661053e61053889600d0b90565b886105ac565b6103e8610679565b6725b946ebc0b3617390610726565b90565b61057d565b61056986600d0b61057d565b61057391906113c3565b6104fd91906113f0565b6000808212156105a857604051635467221960e11b8152600481018390526024015b60405180910390fd5b5090565b60008282600160ff1b8214806105c55750600160ff1b81145b156105e35760405163a6070c2560e01b815260040160405180910390fd5b600080600084126105f457836105f9565b836000035b915060008312610609578261060e565b826000035b9050600061061c83836107c8565b90506001600160ff1b038111156106505760405163120b5b4360e01b8152600481018990526024810188905260440161059f565b6000198585181361066c816106685782600003610555565b8290565b9998505050505050505050565b60008282600160ff1b8214806106925750600160ff1b81145b156106b0576040516309fe2b4560e41b815260040160405180910390fd5b600080600084126106c157836106c6565b836000035b9150600083126106d657826106db565b826000035b905060006106f283670de0b6b3a76400008461087e565b90506001600160ff1b038111156106505760405163d49c26b360e01b8152600481018990526024810188905260440161059f565b6000828281830361075157801561073e576000610748565b670de0b6b3a76400005b925050506104bf565b670de0b6b3a7640000820361077257670de0b6b3a7640000925050506104bf565b8060000361078c57670de0b6b3a7640000925050506104bf565b670de0b6b3a764000081036107a55784925050506104bf565b6107bf6107ba6107b487610951565b866105ac565b610ac0565b95945050505050565b60008080600019848609848602925082811083820303915050806000036107fc5750670de0b6b3a7640000900490506104bf565b670de0b6b3a7640000811061082e57604051635173648d60e01b8152600481018690526024810185905260440161059f565b6000670de0b6b3a764000085870962040000818503049310909103600160ee1b02919091177faccb18165bd6fe31ae1cf318dc5b51eee0e1ba569b88cd74c1773b91fac106690291505092915050565b60008080600019858709858702925082811083820303915050806000036108b8578382816108ae576108ae6113da565b0492505050610213565b8381106108e957604051630c740aef60e31b815260048101879052602481018690526044810185905260640161059f565b600084868809600260036001881981018916988990049182028318808302840302808302840302808302840302808302840302808302840302918202909203026000889003889004909101858311909403939093029303949094049190911702949350505050565b6000818181136109775760405163059b101b60e01b81526004810184905260240161059f565b6000670de0b6b3a76400008212610990575060016109b6565b50600019816ec097ce7bc90715b34b9f1000000000816109b2576109b26113da565b0591505b6000610a42670de0b6b3a7640000840560016fffffffffffffffffffffffffffffffff821160071b91821c67ffffffffffffffff811160061b90811c63ffffffff811160051b90811c61ffff811160041b90811c60ff8111600390811b91821c600f811160021b90811c918211871b91821c969096119490961792909217171791909117919091171790565b9050670de0b6b3a7640000810283821d670de0b6b3a763ffff198101610a6f575091909102949350505050565b671bc16d674ec800006706f05b59d3b200005b6000811315610ab557670de0b6b3a7640000838002059250818312610aad579283019260019290921d915b60011d610a82565b5091840291826103ca565b60008181811215610b215768033dd1780914b9711419811215610ae65750600092915050565b610b1a610af96105556107ba8460000390565b6ec097ce7bc90715b34b9f100000000081610b1657610b166113da565b0590565b9150610b6c565b680a688906bd8affffff811315610b4d57604051626c1a0560e31b81526004810184905260240161059f565b670de0b6b3a7640000604082901b05610b6861055582610b72565b9250505b50919050565b600160bf1b67ff00000000000000821615610c7f57678000000000000000821615610ba65768016a09e667f3bcc9090260401c5b674000000000000000821615610bc5576801306fe0a31b7152df0260401c5b672000000000000000821615610be4576801172b83c7d517adce0260401c5b671000000000000000821615610c035768010b5586cf9890f62a0260401c5b670800000000000000821615610c22576801059b0d31585743ae0260401c5b670400000000000000821615610c4157680102c9a3e778060ee70260401c5b670200000000000000821615610c605768010163da9fb33356d80260401c5b670100000000000000821615610c7f57680100b1afa5abcbed610260401c5b66ff000000000000821615610d7e576680000000000000821615610cac5768010058c86da1c09ea20260401c5b6640000000000000821615610cca576801002c605e2e8cec500260401c5b6620000000000000821615610ce857680100162f3904051fa10260401c5b6610000000000000821615610d06576801000b175effdc76ba0260401c5b6608000000000000821615610d2457680100058ba01fb9f96d0260401c5b6604000000000000821615610d425768010002c5cc37da94920260401c5b6602000000000000821615610d60576801000162e525ee05470260401c5b6601000000000000821615610d7e5768010000b17255775c040260401c5b65ff0000000000821615610e745765800000000000821615610da9576801000058b91b5bc9ae0260401c5b65400000000000821615610dc657680100002c5c89d5ec6d0260401c5b65200000000000821615610de35768010000162e43f4f8310260401c5b65100000000000821615610e0057680100000b1721bcfc9a0260401c5b65080000000000821615610e1d5768010000058b90cf1e6e0260401c5b65040000000000821615610e3a576801000002c5c863b73f0260401c5b65020000000000821615610e5757680100000162e430e5a20260401c5b65010000000000821615610e74576801000000b1721835510260401c5b64ff00000000821615610f6157648000000000821615610e9d57680100000058b90c0b490260401c5b644000000000821615610eb95768010000002c5c8601cc0260401c5b642000000000821615610ed5576801000000162e42fff00260401c5b641000000000821615610ef15768010000000b17217fbb0260401c5b640800000000821615610f0d576801000000058b90bfce0260401c5b640400000000821615610f2957680100000002c5c85fe30260401c5b640200000000821615610f455768010000000162e42ff10260401c5b640100000000821615610f6157680100000000b17217f80260401c5b63ff000000821615611045576380000000821615610f885768010000000058b90bfc0260401c5b6340000000821615610fa3576801000000002c5c85fe0260401c5b6320000000821615610fbe57680100000000162e42ff0260401c5b6310000000821615610fd9576801000000000b17217f0260401c5b6308000000821615610ff457680100000000058b90c00260401c5b630400000082161561100f5768010000000002c5c8600260401c5b630200000082161561102a576801000000000162e4300260401c5b63010000008216156110455768010000000000b172180260401c5b62ff0000821615611120576280000082161561106a576801000000000058b90c0260401c5b6240000082161561108457680100000000002c5c860260401c5b6220000082161561109e5768010000000000162e430260401c5b621000008216156110b857680100000000000b17210260401c5b620800008216156110d25768010000000000058b910260401c5b620400008216156110ec576801000000000002c5c80260401c5b6202000082161561110657680100000000000162e40260401c5b62010000821615611120576801000000000000b1720260401c5b61ff008216156111f25761800082161561114357680100000000000058b90260401c5b61400082161561115c5768010000000000002c5d0260401c5b612000821615611175576801000000000000162e0260401c5b61100082161561118e5768010000000000000b170260401c5b6108008216156111a7576801000000000000058c0260401c5b6104008216156111c057680100000000000002c60260401c5b6102008216156111d957680100000000000001630260401c5b6101008216156111f257680100000000000000b10260401c5b60ff8216156112bb57608082161561121357680100000000000000590260401c5b604082161561122b576801000000000000002c0260401c5b602082161561124357680100000000000000160260401c5b601082161561125b576801000000000000000b0260401c5b600882161561127357680100000000000000060260401c5b600482161561128b57680100000000000000030260401c5b60028216156112a357680100000000000000010260401c5b60018216156112bb57680100000000000000010260401c5b670de0b6b3a76400000260409190911c60bf031c90565b600060c08284031215610b6c57600080fd5b80356001600160a01b03811681146112fb57600080fd5b919050565b600060c0828403121561131257600080fd5b60405160c0810181811067ffffffffffffffff8211171561134357634e487b7160e01b600052604160045260246000fd5b60405261134f836112e4565b815261135d602084016112e4565b602082015260408301356040820152606083013560608201526080830135608082015260a083013560a08201528091505092915050565b6000602082840312156113a657600080fd5b5051919050565b634e487b7160e01b600052601160045260246000fd5b80820281158282048414176104bf576104bf6113ad565b634e487b7160e01b600052601260045260246000fd5b6000826113ff576113ff6113da565b500490565b808201808211156104bf576104bf6113ad565b8181036000831280158383131683831282161715611437576114376113ad565b5092915050565b60008260070b8260070b028060070b9150808214611437576114376113ad565b80820260008212600160ff1b8414161561147a5761147a6113ad565b81810583148215176104bf576104bf6113ad565b80820182811260008312801582168215821617156114ae576114ae6113ad565b505092915050565b6000826114c5576114c56113da565b600160ff1b8214600019841416156114df576114df6113ad565b50059056fea264697066735822122006a80f92ca595271c668b61a6252c1bb207de5d9ca712083c0a32e23ab874c2064736f6c63430008140033","linkReferences":{}},"methodIdentifiers":{"A_LEFT()":"5ae56652","A_LEFT_EXP()":"29084376","A_RIGHT()":"74070c25","A_RIGHT_EXP()":"d6cafa62","B_LEFT()":"a2f82787","B_LEFT_EXP()":"1a2aed8d","B_RIGHT()":"7506c980","B_RIGHT_EXP()":"22607b5d","LINEAR_REGRESSION_BASIS_POINT()":"9955985e","LOWER_STOP_LIMIT()":"bd93aed4","LOWER_THRESHOLD_LIMIT()":"10cddaf2","UPPER_STOP_LIMIT()":"c4be8314","UPPER_THRESHOLD_LIMIT()":"25637f4a","applyDeltaAlgorithm(SwapLib.DeltaCalcParams)":"67b1a187"},"id":3}