{"abi":[{"type":"function","name":"A_LEFT","inputs":[],"outputs":[{"name":"","type":"int64","internalType":"int64"}],"stateMutability":"view"},{"type":"function","name":"A_LEFT_EXP","inputs":[],"outputs":[{"name":"","type":"int112","internalType":"int112"}],"stateMutability":"view"},{"type":"function","name":"A_RIGHT","inputs":[],"outputs":[{"name":"","type":"int64","internalType":"int64"}],"stateMutability":"view"},{"type":"function","name":"A_RIGHT_EXP","inputs":[],"outputs":[{"name":"","type":"int112","internalType":"int112"}],"stateMutability":"view"},{"type":"function","name":"B_LEFT","inputs":[],"outputs":[{"name":"","type":"int64","internalType":"int64"}],"stateMutability":"view"},{"type":"function","name":"B_LEFT_EXP","inputs":[],"outputs":[{"name":"","type":"int112","internalType":"int112"}],"stateMutability":"view"},{"type":"function","name":"B_RIGHT","inputs":[],"outputs":[{"name":"","type":"int64","internalType":"int64"}],"stateMutability":"view"},{"type":"function","name":"B_RIGHT_EXP","inputs":[],"outputs":[{"name":"","type":"int112","internalType":"int112"}],"stateMutability":"view"},{"type":"function","name":"LINEAR_REGRESSION_BASIS_POINT","inputs":[],"outputs":[{"name":"","type":"int64","internalType":"int64"}],"stateMutability":"view"},{"type":"function","name":"LOWER_STOP_LIMIT","inputs":[],"outputs":[{"name":"","type":"int32","internalType":"int32"}],"stateMutability":"view"},{"type":"function","name":"LOWER_THRESHOLD_LIMIT","inputs":[],"outputs":[{"name":"","type":"int32","internalType":"int32"}],"stateMutability":"view"},{"type":"function","name":"UPPER_STOP_LIMIT","inputs":[],"outputs":[{"name":"","type":"int32","internalType":"int32"}],"stateMutability":"view"},{"type":"function","name":"UPPER_THRESHOLD_LIMIT","inputs":[],"outputs":[{"name":"","type":"int32","internalType":"int32"}],"stateMutability":"view"},{"type":"function","name":"applyDeltaAlgorithm","inputs":[{"name":"_deltaParams","type":"tuple","internalType":"struct SwapLib.DeltaCalcParams","components":[{"name":"token0","type":"address","internalType":"address"},{"name":"token1","type":"address","internalType":"address"},{"name":"amount0Out","type":"uint256","internalType":"uint256"},{"name":"amount1Out","type":"uint256","internalType":"uint256"},{"name":"reserve0","type":"uint256","internalType":"uint256"},{"name":"reserve1","type":"uint256","internalType":"uint256"}]}],"outputs":[{"name":"correctedFee","type":"uint256","internalType":"uint256"}],"stateMutability":"view"},{"type":"error","name":"PRBMath_MulDiv18_Overflow","inputs":[{"name":"x","type":"uint256","internalType":"uint256"},{"name":"y","type":"uint256","internalType":"uint256"}]},{"type":"error","name":"PRBMath_MulDiv_Overflow","inputs":[{"name":"x","type":"uint256","internalType":"uint256"},{"name":"y","type":"uint256","internalType":"uint256"},{"name":"denominator","type":"uint256","internalType":"uint256"}]},{"type":"error","name":"PRBMath_SD59x18_Div_InputTooSmall","inputs":[]},{"type":"error","name":"PRBMath_SD59x18_Div_Overflow","inputs":[{"name":"x","type":"int256","internalType":"SD59x18"},{"name":"y","type":"int256","internalType":"SD59x18"}]},{"type":"error","name":"PRBMath_SD59x18_Exp2_InputTooBig","inputs":[{"name":"x","type":"int256","internalType":"SD59x18"}]},{"type":"error","name":"PRBMath_SD59x18_Log_InputTooSmall","inputs":[{"name":"x","type":"int256","internalType":"SD59x18"}]},{"type":"error","name":"PRBMath_SD59x18_Mul_InputTooSmall","inputs":[]},{"type":"error","name":"PRBMath_SD59x18_Mul_Overflow","inputs":[{"name":"x","type":"int256","internalType":"SD59x18"},{"name":"y","type":"int256","internalType":"SD59x18"}]},{"type":"error","name":"SafeCastOverflowedIntToUint","inputs":[{"name":"value","type":"int256","internalType":"int256"}]}],"bytecode":{"object":"0x61141d61003a600b82828239805160001a60731461002d57634e487b7160e01b600052600060045260246000fd5b30600052607381538281f3fe73000000000000000000000000000000000000000030146080604052600436106100f45760003560e01c806374070c2511610096578063a2f8278711610070578063a2f82787146101c0578063bd93aed4146101ca578063c4be8314146101d4578063d6cafa62146101dd57600080fd5b806374070c25146101a35780637506c980146101ac5780639955985e146101b657600080fd5b806325637f4a116100d257806325637f4a1461014c57806329084376146101555780635ae566521461016457806367b1a1871461018257600080fd5b806310cddaf2146100f95780631a2aed8d1461011a57806322607b5d1461013d575b600080fd5b61010260f91981565b60405160039190910b81526020015b60405180910390f35b61012a67196ea321c0aef4b71981565b604051600d9190910b8152602001610111565b61012a67032dd4643815de9c81565b61010261014e81565b61012a676f05b59d3b20000081565b61016f6201099f1981565b60405160079190910b8152602001610111565b6101956101903660046111ee565b6101ec565b604051908152602001610111565b61016f61631a81565b61016f6114f91981565b61016f620f424081565b61016f6136af1981565b6101026101f31981565b6101026103e881565b61012a67dcbb62492885880881565b6000806102066102013685900385018561121c565b61021a565b90506102138160036102ee565b9392505050565b608081015160a082015160009190811580610233575080155b15610242575060009392505050565b60008161025284620f42406112c6565b61025c91906112f3565b9050600085604001516000036102985782866060015161027c9190611307565b61028985620f42406112c6565b61029391906112f3565b6102c0565b828487604001516102a99190611307565b6102b690620f42406112c6565b6102c091906112f3565b90506103e8826102d083836112c6565b6102da91906112f3565b6102e4919061131a565b9695505050505050565b600060f9198312801590610304575061014e8313155b156103105750806103d7565b6101f3198312801590610324575060f91983125b156103425761033b6201099f196136af19856103dd565b90506103d7565b61014e8313801561035557506103e88313155b1561036a5761033b61631a6114f919856103dd565b6101f3198312801561037f57506103e7198312155b156103a05761033b676f05b59d3b20000067196ea321c0aef4b7198561041d565b6103e8831380156103b357506113888313155b156103d35761033b67dcbb62492885880867032dd4643815de9c8561041d565b5060375b92915050565b6000620f42406103ef846103e8611341565b60070b838660070b6104019190611361565b61040b9190611391565b61041591906113b9565b949350505050565b60006104376ec097ce7bc90715b34b9f1000000000610495565b61047561047061046d61045e61045661045089600d0b90565b886104c4565b6103e8610591565b6725b946ebc0b361739061063e565b90565b610495565b61048186600d0b610495565b61048b91906112c6565b61041591906112f3565b6000808212156104c057604051635467221960e11b8152600481018390526024015b60405180910390fd5b5090565b60008282600160ff1b8214806104dd5750600160ff1b81145b156104fb5760405163a6070c2560e01b815260040160405180910390fd5b6000806000841261050c5783610511565b836000035b9150600083126105215782610526565b826000035b9050600061053483836106e0565b90506001600160ff1b038111156105685760405163120b5b4360e01b815260048101899052602481018890526044016104b7565b6000198585181361058481610580578260000361046d565b8290565b9998505050505050505050565b60008282600160ff1b8214806105aa5750600160ff1b81145b156105c8576040516309fe2b4560e41b815260040160405180910390fd5b600080600084126105d957836105de565b836000035b9150600083126105ee57826105f3565b826000035b9050600061060a83670de0b6b3a764000084610796565b90506001600160ff1b038111156105685760405163d49c26b360e01b815260048101899052602481018890526044016104b7565b60008282818303610669578015610656576000610660565b670de0b6b3a76400005b925050506103d7565b670de0b6b3a7640000820361068a57670de0b6b3a7640000925050506103d7565b806000036106a457670de0b6b3a7640000925050506103d7565b670de0b6b3a764000081036106bd5784925050506103d7565b6106d76106d26106cc87610869565b866104c4565b6109dc565b95945050505050565b60008080600019848609848602925082811083820303915050806000036107145750670de0b6b3a7640000900490506103d7565b670de0b6b3a7640000811061074657604051635173648d60e01b815260048101869052602481018590526044016104b7565b6000670de0b6b3a764000085870962040000818503049310909103600160ee1b02919091177faccb18165bd6fe31ae1cf318dc5b51eee0e1ba569b88cd74c1773b91fac106690291505092915050565b60008080600019858709858702925082811083820303915050806000036107d0578382816107c6576107c66112dd565b0492505050610213565b83811061080157604051630c740aef60e31b81526004810187905260248101869052604481018590526064016104b7565b600084868809600260036001881981018916988990049182028318808302840302808302840302808302840302808302840302808302840302918202909203026000889003889004909101858311909403939093029303949094049190911702949350505050565b60008181811361088f5760405163059b101b60e01b8152600481018490526024016104b7565b6000670de0b6b3a764000082126108a8575060016108ce565b50600019816ec097ce7bc90715b34b9f1000000000816108ca576108ca6112dd565b0591505b600061095a670de0b6b3a7640000840560016fffffffffffffffffffffffffffffffff821160071b91821c67ffffffffffffffff811160061b90811c63ffffffff811160051b90811c61ffff811160041b90811c60ff8111600390811b91821c600f811160021b90811c918211871b91821c969096119490961792909217171791909117919091171790565b9050670de0b6b3a7640000810283821d670de0b6b3a763ffff198101610987575091909102949350505050565b671bc16d674ec800006706f05b59d3b200005b60008113156109cd57670de0b6b3a76400008380020592508183126109c5579283019260019290921d915b60011d61099a565b50505091909102949350505050565b60008181811215610a3d5768033dd1780914b9711419811215610a025750600092915050565b610a36610a1561046d6106d28460000390565b6ec097ce7bc90715b34b9f100000000081610a3257610a326112dd565b0590565b9150610a88565b680a688906bd8affffff811315610a6957604051626c1a0560e31b8152600481018490526024016104b7565b670de0b6b3a7640000604082901b05610a8461046d82610a8e565b9250505b50919050565b600160bf1b67ff00000000000000821615610b9b57678000000000000000821615610ac25768016a09e667f3bcc9090260401c5b674000000000000000821615610ae1576801306fe0a31b7152df0260401c5b672000000000000000821615610b00576801172b83c7d517adce0260401c5b671000000000000000821615610b1f5768010b5586cf9890f62a0260401c5b670800000000000000821615610b3e576801059b0d31585743ae0260401c5b670400000000000000821615610b5d57680102c9a3e778060ee70260401c5b670200000000000000821615610b7c5768010163da9fb33356d80260401c5b670100000000000000821615610b9b57680100b1afa5abcbed610260401c5b66ff000000000000821615610c9a576680000000000000821615610bc85768010058c86da1c09ea20260401c5b6640000000000000821615610be6576801002c605e2e8cec500260401c5b6620000000000000821615610c0457680100162f3904051fa10260401c5b6610000000000000821615610c22576801000b175effdc76ba0260401c5b6608000000000000821615610c4057680100058ba01fb9f96d0260401c5b6604000000000000821615610c5e5768010002c5cc37da94920260401c5b6602000000000000821615610c7c576801000162e525ee05470260401c5b6601000000000000821615610c9a5768010000b17255775c040260401c5b65ff0000000000821615610d905765800000000000821615610cc5576801000058b91b5bc9ae0260401c5b65400000000000821615610ce257680100002c5c89d5ec6d0260401c5b65200000000000821615610cff5768010000162e43f4f8310260401c5b65100000000000821615610d1c57680100000b1721bcfc9a0260401c5b65080000000000821615610d395768010000058b90cf1e6e0260401c5b65040000000000821615610d56576801000002c5c863b73f0260401c5b65020000000000821615610d7357680100000162e430e5a20260401c5b65010000000000821615610d90576801000000b1721835510260401c5b64ff00000000821615610e7d57648000000000821615610db957680100000058b90c0b490260401c5b644000000000821615610dd55768010000002c5c8601cc0260401c5b642000000000821615610df1576801000000162e42fff00260401c5b641000000000821615610e0d5768010000000b17217fbb0260401c5b640800000000821615610e29576801000000058b90bfce0260401c5b640400000000821615610e4557680100000002c5c85fe30260401c5b640200000000821615610e615768010000000162e42ff10260401c5b640100000000821615610e7d57680100000000b17217f80260401c5b63ff000000821615610f61576380000000821615610ea45768010000000058b90bfc0260401c5b6340000000821615610ebf576801000000002c5c85fe0260401c5b6320000000821615610eda57680100000000162e42ff0260401c5b6310000000821615610ef5576801000000000b17217f0260401c5b6308000000821615610f1057680100000000058b90c00260401c5b6304000000821615610f2b5768010000000002c5c8600260401c5b6302000000821615610f46576801000000000162e4300260401c5b6301000000821615610f615768010000000000b172180260401c5b62ff000082161561103c5762800000821615610f86576801000000000058b90c0260401c5b62400000821615610fa057680100000000002c5c860260401c5b62200000821615610fba5768010000000000162e430260401c5b62100000821615610fd457680100000000000b17210260401c5b62080000821615610fee5768010000000000058b910260401c5b62040000821615611008576801000000000002c5c80260401c5b6202000082161561102257680100000000000162e40260401c5b6201000082161561103c576801000000000000b1720260401c5b61ff0082161561110e5761800082161561105f57680100000000000058b90260401c5b6140008216156110785768010000000000002c5d0260401c5b612000821615611091576801000000000000162e0260401c5b6110008216156110aa5768010000000000000b170260401c5b6108008216156110c3576801000000000000058c0260401c5b6104008216156110dc57680100000000000002c60260401c5b6102008216156110f557680100000000000001630260401c5b61010082161561110e57680100000000000000b10260401c5b60ff8216156111d757608082161561112f57680100000000000000590260401c5b6040821615611147576801000000000000002c0260401c5b602082161561115f57680100000000000000160260401c5b6010821615611177576801000000000000000b0260401c5b600882161561118f57680100000000000000060260401c5b60048216156111a757680100000000000000030260401c5b60028216156111bf57680100000000000000010260401c5b60018216156111d757680100000000000000010260401c5b670de0b6b3a76400000260409190911c60bf031c90565b600060c08284031215610a8857600080fd5b80356001600160a01b038116811461121757600080fd5b919050565b600060c0828403121561122e57600080fd5b60405160c0810181811067ffffffffffffffff8211171561125f57634e487b7160e01b600052604160045260246000fd5b60405261126b83611200565b815261127960208401611200565b602082015260408301356040820152606083013560608201526080830135608082015260a083013560a08201528091505092915050565b634e487b7160e01b600052601160045260246000fd5b80820281158282048414176103d7576103d76112b0565b634e487b7160e01b600052601260045260246000fd5b600082611302576113026112dd565b500490565b808201808211156103d7576103d76112b0565b818103600083128015838313168383128216171561133a5761133a6112b0565b5092915050565b60008260070b8260070b028060070b915080821461133a5761133a6112b0565b80820260008212600160ff1b8414161561137d5761137d6112b0565b81810583148215176103d7576103d76112b0565b80820182811260008312801582168215821617156113b1576113b16112b0565b505092915050565b6000826113c8576113c86112dd565b600160ff1b8214600019841416156113e2576113e26112b0565b50059056fea264697066735822122019af0d100462cbf7f4fb616a46f1e7600af218378630c9caeafb1c6d2a3b1bd964736f6c63430008140033","linkReferences":{}},"methodIdentifiers":{"A_LEFT()":"5ae56652","A_LEFT_EXP()":"29084376","A_RIGHT()":"74070c25","A_RIGHT_EXP()":"d6cafa62","B_LEFT()":"a2f82787","B_LEFT_EXP()":"1a2aed8d","B_RIGHT()":"7506c980","B_RIGHT_EXP()":"22607b5d","LINEAR_REGRESSION_BASIS_POINT()":"9955985e","LOWER_STOP_LIMIT()":"bd93aed4","LOWER_THRESHOLD_LIMIT()":"10cddaf2","UPPER_STOP_LIMIT()":"c4be8314","UPPER_THRESHOLD_LIMIT()":"25637f4a","applyDeltaAlgorithm(SwapLib.DeltaCalcParams)":"67b1a187"},"id":13}