{"abi":[{"type":"constructor","inputs":[{"name":"_feeToSetter","type":"address","internalType":"address"}],"stateMutability":"nonpayable"},{"type":"function","name":"PAIR_HASH","inputs":[],"outputs":[{"name":"","type":"bytes32","internalType":"bytes32"}],"stateMutability":"view"},{"type":"function","name":"allPairs","inputs":[{"name":"","type":"uint256","internalType":"uint256"}],"outputs":[{"name":"","type":"address","internalType":"address"}],"stateMutability":"view"},{"type":"function","name":"allPairsLength","inputs":[],"outputs":[{"name":"","type":"uint256","internalType":"uint256"}],"stateMutability":"view"},{"type":"function","name":"createPair","inputs":[{"name":"tokenA","type":"address","internalType":"address"},{"name":"tokenB","type":"address","internalType":"address"}],"outputs":[{"name":"pair","type":"address","internalType":"address"}],"stateMutability":"nonpayable"},{"type":"function","name":"feeTo","inputs":[],"outputs":[{"name":"","type":"address","internalType":"address"}],"stateMutability":"view"},{"type":"function","name":"feeToSetter","inputs":[],"outputs":[{"name":"","type":"address","internalType":"address"}],"stateMutability":"view"},{"type":"function","name":"getPair","inputs":[{"name":"","type":"address","internalType":"address"},{"name":"","type":"address","internalType":"address"}],"outputs":[{"name":"","type":"address","internalType":"address"}],"stateMutability":"view"},{"type":"function","name":"owner","inputs":[],"outputs":[{"name":"","type":"address","internalType":"address"}],"stateMutability":"view"},{"type":"function","name":"router","inputs":[],"outputs":[{"name":"","type":"address","internalType":"address"}],"stateMutability":"view"},{"type":"function","name":"setFeeTo","inputs":[{"name":"_feeTo","type":"address","internalType":"address"}],"outputs":[],"stateMutability":"nonpayable"},{"type":"function","name":"setFeeToSetter","inputs":[{"name":"_feeToSetter","type":"address","internalType":"address"}],"outputs":[],"stateMutability":"nonpayable"},{"type":"function","name":"setRouter","inputs":[{"name":"_router","type":"address","internalType":"address"}],"outputs":[],"stateMutability":"nonpayable"},{"type":"event","name":"PairCreated","inputs":[{"name":"token0","type":"address","indexed":true,"internalType":"address"},{"name":"token1","type":"address","indexed":true,"internalType":"address"},{"name":"pair","type":"address","indexed":true,"internalType":"address"},{"name":"totalPairs","type":"uint256","indexed":false,"internalType":"uint256"}],"anonymous":false}],"bytecode":{"object":"0x608060405234801561001057600080fd5b50604051612c34380380612c3483398101604081905261002f9161005d565b600180546001600160a01b039092166001600160a01b0319928316179055600480549091163317905561008d565b60006020828403121561006f57600080fd5b81516001600160a01b038116811461008657600080fd5b9392505050565b612b988061009c6000396000f3fe608060405234801561001057600080fd5b50600436106100b45760003560e01c8063a2e74af611610071578063a2e74af61461013c578063c0d7865514610151578063c9c6539614610164578063e6a4390514610177578063f46901ed146101ab578063f887ea40146101be57600080fd5b8063017e7e58146100b9578063094b7415146100e95780631e3dd18b146100fc578063574f2ba31461010f57806364f91c72146101215780638da5cb5b14610129575b600080fd5b6000546100cc906001600160a01b031681565b6040516001600160a01b0390911681526020015b60405180910390f35b6001546100cc906001600160a01b031681565b6100cc61010a3660046106c1565b6101d1565b6002545b6040519081526020016100e0565b6101136101fb565b6004546100cc906001600160a01b031681565b61014f61014a3660046106f6565b610228565b005b61014f61015f3660046106f6565b6102a2565b6100cc610172366004610718565b6102db565b6100cc610185366004610718565b60056020908152600092835260408084209091529082529020546001600160a01b031681565b61014f6101b93660046106f6565b61063f565b6003546100cc906001600160a01b031681565b600281815481106101e157600080fd5b6000918252602090912001546001600160a01b0316905081565b60405161020a602082016106b4565b6020820181038252601f19601f820116604052508051906020012081565b6001546001600160a01b031633146102805760405162461bcd60e51b81526020600482015260166024820152752232b33a2330b1ba37b93c9d102327a92124a22222a760511b60448201526064015b60405180910390fd5b600180546001600160a01b0319166001600160a01b0392909216919091179055565b6004546001600160a01b031633146102b957600080fd5b600380546001600160a01b0319166001600160a01b0392909216919091179055565b6000816001600160a01b0316836001600160a01b03160361033e5760405162461bcd60e51b815260206004820181905260248201527f44656674466163746f72793a204944454e544943414c5f4144445245535345536044820152606401610277565b600080836001600160a01b0316856001600160a01b031610610361578385610364565b84845b90925090506001600160a01b0382166103bf5760405162461bcd60e51b815260206004820152601960248201527f44656674466163746f72793a205a45524f5f41444452455353000000000000006044820152606401610277565b6001600160a01b038281166000908152600560209081526040808320858516845290915290205416156104345760405162461bcd60e51b815260206004820152601860248201527f44656674466163746f72793a20504149525f45584953545300000000000000006044820152606401610277565b600060405180602001610446906106b4565b601f1982820381018352601f9091011660408190526bffffffffffffffffffffffff19606086811b8216602084015285901b166034820152909150600090604801604051602081830303815290604052805190602001209050808251602084016000f560405163485cc95560e01b81526001600160a01b03868116600483015285811660248301529196509086169063485cc95590604401600060405180830381600087803b1580156104f857600080fd5b505af115801561050c573d6000803e3d6000fd5b505060035460405163c0d7865560e01b81526001600160a01b039182166004820152908816925063c0d786559150602401600060405180830381600087803b15801561055757600080fd5b505af115801561056b573d6000803e3d6000fd5b505050506001600160a01b03848116600081815260056020818152604080842089871680865290835281852080546001600160a01b0319908116988e169889179091559383528185208686528352818520805485168817905560028054600181018255958190527f405787fa12a823e0f2b7631cc41b3ba8828b3321ca811111fa75cd3aa3bb5ace90950180549094168717909355925492519283529092917f0d3648bd0f6ba80134a33ba9275ac585d9d315f0ad8355cddefde31afa28d0e9910160405180910390a45050505092915050565b6001546001600160a01b031633146106925760405162461bcd60e51b81526020600482015260166024820152752232b33a2330b1ba37b93c9d102327a92124a22222a760511b6044820152606401610277565b600080546001600160a01b0319166001600160a01b0392909216919091179055565b6124178061074c83390190565b6000602082840312156106d357600080fd5b5035919050565b80356001600160a01b03811681146106f157600080fd5b919050565b60006020828403121561070857600080fd5b610711826106da565b9392505050565b6000806040838503121561072b57600080fd5b610734836106da565b9150610742602084016106da565b9050925092905056fe60c060405260016009553360a05234801561001957600080fd5b50604080518082018252600d81526c2232b33a102628102a37b5b2b760991b6020918201528151808301835260018152603160f81b9082015281517f8b73c3c69bb8fe3d512ecc4cf759cc79239f7b179b0ffacaa9a75d522b39400f918101919091527f58422180db1e78b5044f9e429e0a08ad6c4f25dbbe7788b4826e998ff84a8961918101919091527fc89efdaa54c0f20c7adf612882df0950f5a951637e0307cdcb4c672f298b8bc660608201524660808201523060a082015260c00160408051601f19818403018152919052805160209091012060805260805160a0516122e2610135600039600081816102dc01528181610b2e015281816113990152611b76015260008181610357015261147d01526122e26000f3fe608060405234801561001057600080fd5b50600436106101cf5760003560e01c80635a3d549311610104578063a9059cbb116100a2578063d21220a711610071578063d21220a71461048a578063d505accf1461049d578063dd62ed3e146104b0578063fff6cae9146104db57600080fd5b8063a9059cbb14610448578063ba9a7a561461045b578063bc25cf7714610464578063c0d786551461047757600080fd5b80637464fc3d116100de5780637464fc3d146103d15780637ecebe00146103da57806389afcb44146103fa57806395d89b411461042257600080fd5b80635a3d5493146103955780636a6278421461039e57806370a08231146103b157600080fd5b80632dd310001161017157806332fe7b261161014b57806332fe7b261461033f5780633644e51514610352578063485cc955146103795780635909c0d51461038c57600080fd5b80632dd31000146102d757806330adf81f146102fe578063313ce5671461032557600080fd5b8063095ea7b3116101ad578063095ea7b31461025f5780630dfe16811461028257806318160ddd146102ad57806323b872dd146102c457600080fd5b8063022c0d9f146101d457806306fdde03146101e95780630902f1ac1461022b575b600080fd5b6101e76101e2366004611e95565b6104e3565b005b6102156040518060400160405280600d81526020016c2232b33a102628102a37b5b2b760991b81525081565b6040516102229190611f4f565b60405180910390f35b610233610a68565b604080516001600160701b03948516815293909216602084015263ffffffff1690820152606001610222565b61027261026d366004611f82565b610a92565b6040519015158152602001610222565b600454610295906001600160a01b031681565b6040516001600160a01b039091168152602001610222565b6102b660005481565b604051908152602001610222565b6102726102d2366004611fae565b610aa9565b6102957f000000000000000000000000000000000000000000000000000000000000000081565b6102b67f6e71edae12b1b97f4d1f60370fef10105fa2faae0126114a169c64845d6126c981565b61032d601281565b60405160ff9091168152602001610222565b600b54610295906001600160a01b031681565b6102b67f000000000000000000000000000000000000000000000000000000000000000081565b6101e7610387366004611fef565b610b23565b6102b660065481565b6102b660075481565b6102b66103ac366004612028565b610bbf565b6102b66103bf366004612028565b60016020526000908152604090205481565b6102b660085481565b6102b66103e8366004612028565b60026020526000908152604090205481565b61040d610408366004612028565b610e8e565b60408051928352602083019190915201610222565b6102156040518060400160405280600781526020016613140b5111519560ca1b81525081565b610272610456366004611f82565b611209565b6102b66103e881565b6101e7610472366004612028565b611216565b6101e7610485366004612028565b61138e565b600554610295906001600160a01b031681565b6101e76104ab366004612045565b61141e565b6102b66104be366004611fef565b600360209081526000928352604080842090915290825290205481565b6101e761164b565b60095460011461050e5760405162461bcd60e51b8152600401610505906120bc565b60405180910390fd5b6000600955600b546001600160a01b031633146105795760405162461bcd60e51b8152602060048201526024808201527f44656674506169723a204d7573742062652063616c6c65642066726f6d20526f6044820152633aba32b960e11b6064820152608401610505565b60008511806105885750600084115b6105e05760405162461bcd60e51b8152602060048201526024808201527f44656674506169723a20494e53554646494349454e545f4f55545055545f414d60448201526313d5539560e21b6064820152608401610505565b6000806105eb610a68565b5091509150816001600160701b0316871080156106105750806001600160701b031686105b61065c5760405162461bcd60e51b815260206004820181905260248201527f44656674506169723a20494e53554646494349454e545f4c49515549444954596044820152606401610505565b60045460055460009182916001600160a01b0391821691908116908916821480159061069a5750806001600160a01b0316896001600160a01b031614155b6106dd5760405162461bcd60e51b815260206004820152601460248201527344656674506169723a20494e56414c49445f544f60601b6044820152606401610505565b8a156106f7576106f76001600160a01b0383168a8d611774565b8915610711576107116001600160a01b0382168a8c611774565b861561077e576040516348e72ba160e11b81526001600160a01b038a16906391ce57429061074b9033908f908f908e908e906004016120ea565b600060405180830381600087803b15801561076557600080fd5b505af1158015610779573d6000803e3d6000fd5b505050505b6040516370a0823160e01b81523060048201526001600160a01b038316906370a0823190602401602060405180830381865afa1580156107c2573d6000803e3d6000fd5b505050506040513d601f19601f820116820180604052508101906107e69190612136565b6040516370a0823160e01b81523060048201529094506001600160a01b038216906370a0823190602401602060405180830381865afa15801561082d573d6000803e3d6000fd5b505050506040513d601f19601f820116820180604052508101906108519190612136565b92505050600089856001600160701b031661086c9190612165565b8311610879576000610896565b61088c8a6001600160701b038716612165565b6108969084612165565b905060006108ad8a6001600160701b038716612165565b83116108ba5760006108d7565b6108cd8a6001600160701b038716612165565b6108d79084612165565b905060008211806108e85750600081115b6109405760405162461bcd60e51b815260206004820152602360248201527f44656674506169723a20494e53554646494349454e545f494e5055545f414d4f60448201526215539560ea1b6064820152608401610505565b600061094d836003612178565b610959866103e8612178565b6109639190612165565b90506000610972836003612178565b61097e866103e8612178565b6109889190612165565b90506109a06001600160701b03808916908a16612178565b6109ad90620f4240612178565b6109b78284612178565b10156109f35760405162461bcd60e51b815260206004820152600b60248201526a44656674506169723a204b60a81b6044820152606401610505565b5050610a01848488886118a5565b60408051838152602081018390529081018c9052606081018b90526001600160a01b038a169033907fd78ad95fa46c994b6551d0da85fc275fe613ce37657fb8d5e3d130840159d8229060800160405180910390a350506001600955505050505050505050565b600a546001600160701b0380821692600160701b830490911691600160e01b900463ffffffff1690565b6000610a9f338484611a6e565b5060015b92915050565b6001600160a01b038316600090815260036020908152604080832033845290915281205460001914610b0e576001600160a01b038416600090815260036020908152604080832033845290915281208054849290610b08908490612165565b90915550505b610b19848484611ad0565b5060019392505050565b336001600160a01b037f00000000000000000000000000000000000000000000000000000000000000001614610b915760405162461bcd60e51b81526020600482015260136024820152722232b33a2830b4b91d102327a92124a22222a760691b6044820152606401610505565b600480546001600160a01b039384166001600160a01b03199182161790915560058054929093169116179055565b6000600954600114610be35760405162461bcd60e51b8152600401610505906120bc565b6000600981905580610bf3610a68565b50600480546040516370a0823160e01b815230928101929092529294509092506000916001600160a01b0316906370a0823190602401602060405180830381865afa158015610c46573d6000803e3d6000fd5b505050506040513d601f19601f82011682018060405250810190610c6a9190612136565b6005546040516370a0823160e01b81523060048201529192506000916001600160a01b03909116906370a0823190602401602060405180830381865afa158015610cb8573d6000803e3d6000fd5b505050506040513d601f19601f82011682018060405250810190610cdc9190612136565b90506000610cf36001600160701b03861684612165565b90506000610d0a6001600160701b03861684612165565b90506000610d188787611b71565b60008054919250819003610d59576103e8610d3b610d368587612178565b611cbb565b610d459190612165565b9850610d5460006103e8611d2b565b610da1565b610d9e6001600160701b038816610d708386612178565b610d7a91906121a5565b6001600160701b038a16610d8e8488612178565b610d9891906121a5565b90611db4565b98505b60008911610e015760405162461bcd60e51b815260206004820152602760248201527f44656674506169723a20494e53554646494349454e545f4c495155494449545960448201526617d3525395115160ca1b6064820152608401610505565b610e0b8a8a611d2b565b610e1786868a8a6118a5565b8115610e4057600a54610e3c906001600160701b03600160701b820481169116612178565b6008555b604080518581526020810185905233917f4c209b5fc8ad50758f13e2e1088ba56a560dff690a1c6fef26394f4c03821c4f910160405180910390a25050600160095550949695505050505050565b600080600954600114610eb35760405162461bcd60e51b8152600401610505906120bc565b6000600981905580610ec3610a68565b50600480546005546040516370a0823160e01b815230938101939093529395509193506001600160a01b0391821692919091169060009083906370a0823190602401602060405180830381865afa158015610f22573d6000803e3d6000fd5b505050506040513d601f19601f82011682018060405250810190610f469190612136565b6040516370a0823160e01b81523060048201529091506000906001600160a01b038416906370a0823190602401602060405180830381865afa158015610f90573d6000803e3d6000fd5b505050506040513d601f19601f82011682018060405250810190610fb49190612136565b30600090815260016020526040812054919250610fd18888611b71565b60005490915080610fe28685612178565b610fec91906121a5565b9a5080610ff98585612178565b61100391906121a5565b995060008b118015611015575060008a115b6110715760405162461bcd60e51b815260206004820152602760248201527f44656674506169723a20494e53554646494349454e545f4c495155494449545960448201526617d0955493915160ca1b6064820152608401610505565b61107b3084611dcc565b61108f6001600160a01b0388168d8d611774565b6110a36001600160a01b0387168d8c611774565b6040516370a0823160e01b81523060048201526001600160a01b038816906370a0823190602401602060405180830381865afa1580156110e7573d6000803e3d6000fd5b505050506040513d601f19601f8201168201806040525081019061110b9190612136565b6040516370a0823160e01b81523060048201529095506001600160a01b038716906370a0823190602401602060405180830381865afa158015611152573d6000803e3d6000fd5b505050506040513d601f19601f820116820180604052508101906111769190612136565b935061118485858b8b6118a5565b81156111ad57600a546111a9906001600160701b03600160701b820481169116612178565b6008555b604080518c8152602081018c90526001600160a01b038e169133917fdccd412f0b1252819cb1fd330b93224ca42612892bb3f4f789976e6d81936496910160405180910390a35050505050505050506001600981905550915091565b6000610a9f338484611ad0565b6009546001146112385760405162461bcd60e51b8152600401610505906120bc565b600060095560048054600554600a546040516370a0823160e01b815230948101949094526001600160a01b039283169392909116916112e69185916001600160701b039091169085906370a0823190602401602060405180830381865afa1580156112a7573d6000803e3d6000fd5b505050506040513d601f19601f820116820180604052508101906112cb9190612136565b6112d59190612165565b6001600160a01b0385169190611774565b600a546040516370a0823160e01b8152306004820152611384918591600160701b9091046001600160701b0316906001600160a01b038516906370a0823190602401602060405180830381865afa158015611345573d6000803e3d6000fd5b505050506040513d601f19601f820116820180604052508101906113699190612136565b6113739190612165565b6001600160a01b0384169190611774565b5050600160095550565b336001600160a01b037f000000000000000000000000000000000000000000000000000000000000000016146113fc5760405162461bcd60e51b81526020600482015260136024820152722232b33a2830b4b91d102327a92124a22222a760691b6044820152606401610505565b600b80546001600160a01b0319166001600160a01b0392909216919091179055565b428410156114615760405162461bcd60e51b815260206004820152601060248201526f1119599d1314150e881156141254915160821b6044820152606401610505565b6001600160a01b038716600090815260026020526040812080547f0000000000000000000000000000000000000000000000000000000000000000917f6e71edae12b1b97f4d1f60370fef10105fa2faae0126114a169c64845d6126c9918b918b918b91876114cf836121b9565b909155506040805160208101969096526001600160a01b0394851690860152929091166060840152608083015260a082015260c0810187905260e0016040516020818303038152906040528051906020012060405160200161154892919061190160f01b81526002810192909252602282015260420190565b60408051601f198184030181528282528051602091820120600080855291840180845281905260ff88169284019290925260608301869052608083018590529092509060019060a0016020604051602081039080840390855afa1580156115b3573d6000803e3d6000fd5b5050604051601f1901519150506001600160a01b038116158015906115e95750886001600160a01b0316816001600160a01b0316145b6116355760405162461bcd60e51b815260206004820152601a60248201527f446566744c50543a20494e56414c49445f5349474e41545552450000000000006044820152606401610505565b611640898989611a6e565b505050505050505050565b60095460011461166d5760405162461bcd60e51b8152600401610505906120bc565b6000600955600480546040516370a0823160e01b8152309281019290925261176d916001600160a01b03909116906370a0823190602401602060405180830381865afa1580156116c1573d6000803e3d6000fd5b505050506040513d601f19601f820116820180604052508101906116e59190612136565b6005546040516370a0823160e01b81523060048201526001600160a01b03909116906370a0823190602401602060405180830381865afa15801561172d573d6000803e3d6000fd5b505050506040513d601f19601f820116820180604052508101906117519190612136565b600a546001600160701b0380821691600160701b9004166118a5565b6001600955565b604080516001600160a01b038481166024830152604480830185905283518084039091018152606490920183526020820180516001600160e01b031663a9059cbb60e01b17905291516000928392908716916117d091906121d2565b6000604051808303816000865af19150503d806000811461180d576040519150601f19603f3d011682016040523d82523d6000602084013e611812565b606091505b509150915081801561183c57508051158061183c57508080602001905181019061183c91906121ee565b61189e5760405162461bcd60e51b815260206004820152602d60248201527f5472616e7366657248656c7065723a3a736166655472616e736665723a20747260448201526c185b9cd9995c8819985a5b1959609a1b6064820152608401610505565b5050505050565b6001600160701b0384118015906118c357506001600160701b038311155b6119045760405162461bcd60e51b815260206004820152601260248201527144656674506169723a204f564552464c4f5760701b6044820152606401610505565b600061191564010000000042612210565b600a5490915063ffffffff600160e01b909104811682039081161580159061194557506001600160701b03841615155b801561195957506001600160701b03831615155b156119d6578063ffffffff1661198a8561197b866001600160701b0316611e4f565b6001600160e01b031690611e68565b600680546001600160e01b03929092169290920201905563ffffffff81166119be8461197b6001600160701b038816611e4f565b600780546001600160e01b0392909216929092020190555b50600a805463ffffffff8316600160e01b026001600160e01b036001600160701b03888116600160701b9081026001600160e01b03199095168b83161794909417918216831794859055604080519382169282169290921783529290930490911660208201527f1c411e9a96e071241c2f21f7726b17ae89e3cab4c78be50e062b03a9fffbbad1910160405180910390a15050505050565b6001600160a01b0383811660008181526003602090815260408083209487168084529482529182902085905590518481527f8c5be1e5ebec7d5bd14f71427d1e84f3dd0314c0f7b2291e5b200ac8c7c3b92591015b60405180910390a3505050565b6001600160a01b03831660009081526001602052604081208054839290611af8908490612165565b90915550506001600160a01b03821660009081526001602052604081208054839290611b25908490612224565b92505081905550816001600160a01b0316836001600160a01b03167fddf252ad1be2c89b69c2b068fc378daa952ba7f163c4a11628f55a4df523b3ef83604051611ac391815260200190565b6000807f00000000000000000000000000000000000000000000000000000000000000006001600160a01b031663017e7e586040518163ffffffff1660e01b8152600401602060405180830381865afa158015611bd2573d6000803e3d6000fd5b505050506040513d601f19601f82011682018060405250810190611bf69190612237565b6008546001600160a01b038216158015945091925090611ca7578015611ca2576000611c31610d366001600160701b03808816908916612178565b90506000611c3e83611cbb565b905080821115611c9f576000611c548284612165565b600054611c619190612178565b9050600082611c71856005612178565b611c7b9190612224565b90506000611c8982846121a5565b90508015611c9b57611c9b8782611d2b565b5050505b50505b611cb3565b8015611cb35760006008555b505092915050565b60006003821115611d1c5750806000611cd56002836121a5565b611ce0906001612224565b90505b81811015611d1657905080600281611cfb81866121a5565b611d059190612224565b611d0f91906121a5565b9050611ce3565b50919050565b8115611d26575060015b919050565b80600080828254611d3c9190612224565b90915550506001600160a01b03821660009081526001602052604081208054839290611d69908490612224565b90915550506040518181526001600160a01b038316906000907fddf252ad1be2c89b69c2b068fc378daa952ba7f163c4a11628f55a4df523b3ef906020015b60405180910390a35050565b6000818310611dc35781611dc5565b825b9392505050565b6001600160a01b03821660009081526001602052604081208054839290611df4908490612165565b9250508190555080600080828254611e0c9190612165565b90915550506040518181526000906001600160a01b038416907fddf252ad1be2c89b69c2b068fc378daa952ba7f163c4a11628f55a4df523b3ef90602001611da8565b6000610aa3600160701b6001600160701b038416612254565b6000611dc56001600160701b03831684612286565b6001600160a01b0381168114611e9257600080fd5b50565b600080600080600060808688031215611ead57600080fd5b85359450602086013593506040860135611ec681611e7d565b9250606086013567ffffffffffffffff80821115611ee357600080fd5b818801915088601f830112611ef757600080fd5b813581811115611f0657600080fd5b896020828501011115611f1857600080fd5b9699959850939650602001949392505050565b60005b83811015611f46578181015183820152602001611f2e565b50506000910152565b6020815260008251806020840152611f6e816040850160208701611f2b565b601f01601f19169190910160400192915050565b60008060408385031215611f9557600080fd5b8235611fa081611e7d565b946020939093013593505050565b600080600060608486031215611fc357600080fd5b8335611fce81611e7d565b92506020840135611fde81611e7d565b929592945050506040919091013590565b6000806040838503121561200257600080fd5b823561200d81611e7d565b9150602083013561201d81611e7d565b809150509250929050565b60006020828403121561203a57600080fd5b8135611dc581611e7d565b600080600080600080600060e0888a03121561206057600080fd5b873561206b81611e7d565b9650602088013561207b81611e7d565b95506040880135945060608801359350608088013560ff8116811461209f57600080fd5b9699959850939692959460a0840135945060c09093013592915050565b6020808252601490820152731119599d14185a5c8e8814914b5153951490539560621b604082015260600190565b60018060a01b038616815284602082015283604082015260806060820152816080820152818360a0830137600081830160a090810191909152601f909201601f19160101949350505050565b60006020828403121561214857600080fd5b5051919050565b634e487b7160e01b600052601160045260246000fd5b81810381811115610aa357610aa361214f565b8082028115828204841417610aa357610aa361214f565b634e487b7160e01b600052601260045260246000fd5b6000826121b4576121b461218f565b500490565b6000600182016121cb576121cb61214f565b5060010190565b600082516121e4818460208701611f2b565b9190910192915050565b60006020828403121561220057600080fd5b81518015158114611dc557600080fd5b60008261221f5761221f61218f565b500690565b80820180821115610aa357610aa361214f565b60006020828403121561224957600080fd5b8151611dc581611e7d565b6001600160e01b0382811682821681810283169291811582850482141761227d5761227d61214f565b50505092915050565b60006001600160e01b03838116806122a0576122a061218f565b9216919091049291505056fea2646970667358221220e51ec06313f2427ba4d609b43f08391cd8db9592377cd160f02002c6d22a603c64736f6c63430008140033a2646970667358221220b788b454b9e12fc64c9b182326be9d387859692eee73e1f08e0c4e56963650df64736f6c63430008140033","linkReferences":{}},"methodIdentifiers":{"PAIR_HASH()":"64f91c72","allPairs(uint256)":"1e3dd18b","allPairsLength()":"574f2ba3","createPair(address,address)":"c9c65396","feeTo()":"017e7e58","feeToSetter()":"094b7415","getPair(address,address)":"e6a43905","owner()":"8da5cb5b","router()":"f887ea40","setFeeTo(address)":"f46901ed","setFeeToSetter(address)":"a2e74af6","setRouter(address)":"c0d78655"},"id":0}